:100000000C94B8030C94FF030C94FF030C94FF03AF
:100010000C94FF030C94FF030C94FF030C94FF0358
:100020000C94FF030C94FF030C94B22E0C94672DD8
:100030000C94541C0C94FF030C94FF030C94FF03CA
:100040000C94FF030C94FF030C94FF030C94FF0328
:100050000C94FF030C94071C0C94FF030C94FF03F7
:100060000C94FF030C94FF030C94FF030C94FF0308
:100070000C94FF030C94FF030C94FF030C94FF03F8
:100080000C94FF030C94FF030C94FF030C94FF03E8
:100090000C94FF030C94FF030C94FF030C94FF03D8
:1000A0000C94FF030C94FF030C94FF03F307EC0B79
:1000B000170C530C940CDE0C220D250D2A0D2D0D62
:1000C000320D350D380D3B0D3E0D410D440D470DE4
:1000D0004A0D4D0D520D550D580D5D0DA10DE50D3F
:1000E0002D0E300E330E360E3B0E460E490E540EBC
:1000F000570E620E650E700E730E7E0E3C123C1291
:1001000076127612CF12EB127E147E14F812D513EB
:10011000E213E213DC1DDC1DEF1DEF1DE51DEF1DDD
:10012000EF1DEF1DDC1DDC1DEA1DEF1DEF1DEA1D9F
:1001300009253025E9263025E9267C259F25E92655
:10014000A126B1260A002530313662003A2000256A
:10015000303258000A722F63203031323334353652
:100160003738394142434445460A00FD377A585AE8
:10017000000004E6D6B44602002101160000007417
:100180002FE5A3E001D500F15D003D8889C6543616
:10019000C3174FE4DCC05AD42F62FC5A148D4100BF
:1001A0007D85F1FC7CCF5F40BFF786F93255799FA2
:1001B0002B270C3C2459206F2F0A8B80F0B6BB8C68
:1001C0000CD4F257F0F70CE13ECEAD7AEF1DEDFF07
:1001D00023D2CFCC1243F148E55633F3027672CAEC
:1001E000DAF14D25B65D96FFE042603E3405497E6A
:1001F00082ADAD5B685865827D73E78308863C29D4
:10020000CBA0FE7F3ED6CDC7358E24403754356B0C
:10021000CFFF855C737335290A8684BE8E1EAC427F
:10022000D33217415E66993D1296E0CF10D85D1A21
:10023000A139B6E6631815515C602B44D6EC0583F2
:10024000CEEA4E69EB40834A31A6416023ABA54E0E
:10025000EA9781DB604EDE63CC3AA8478C23D464F6
:1002600069E0CBED3A33BBBE1E9A0FE6E2DC59F3F0
:100270006E1659C19EAB4FD9415A00000000001BB9
:10028000521AD9BAA9D96900018D02D6030000A774
:10029000D8C21AB1C467FB020000000004595A5BBF
:1002A000735D004B6579626F617264207374617273
:1002B000742E0A00290014001A0008001500170007
:1002C0001C0018000C00120013002A002B00040070
:1002D0001600070009000A000B000D000E000F00B9
:1002E00000002800E1001D001B00060019000500A9
:1002F000110010003600520000003700E000E3005B
:10030000E2002C0000002C000000015150005100C0
:1003100000004F00005C010001000100010001002D
:100320000100010001000100010001000100BF5CAB
:10033000BD5CBE5CC05C0100010001000100010069
:10034000000001000100C25CC35CC55CC65CC75C08
:10035000C85CC95CCA5C010000000100010001002A
:100360000100010000000100000001000100010087
:10037000000001000631FF0974A10109751500266E
:10038000FF009520750881020976150026FF00956B
:100390002075089102C005010902A1018502090129
:1003A000A10005091901290515002501950575010B
:1003B000810295017503810105010930093115811B
:1003C000257F95027508810609381581257F9501DD
:1003D00075088106050C0A38021581257F9501757F
:1003E000088106C0C005010980A101850319012A01
:1003F000B700150126B700950175108100C0050CE6
:100400000901A101850419012AA002150126A002F3
:10041000950175108100C00660FF0961A1010962A4
:10042000150026FF00952075088102096315002636
:10043000FF00952075089102C005010906A101057C
:100440000719E029E7150025019508750181029536
:1004500001750881010507190029FF150026FF0015
:10046000950675088100050819012905950575018E
:100470009102950175039101C009027B00040100FE
:10048000A0FA090400000103010100092111010083
:10049000012240000705810308000A090401000247
:1004A000030000000921110100012222000705823A
:1004B00003200001070503032000010904020001D5
:1004C00003000000092111010001228100070584B9
:1004D0000320000A0904030002030000000921119F
:1004E0000100012222000705850320000107050500
:1004F000032000011201100100000008EDFE616000
:100500000100010203011C037600690061006C0018
:100510003A006600360034006300320062003300A7
:1005200063000000220343004D004D004B005F00BC
:1005300042004D003400330041005F00480053008A
:10054000520047004200000014036D006F006D0070
:100550006F006D006F00630068006100000004031D
:10056000090400000000000000000000000000007E
:10057000000000000000000000000000000000007B
:100580000000000000007E0F00D4FFFFFFC7000046
:10059000007800000000000000002A2B2800000066
:1005A0000000000000000000000000000029000022
:1005B00000002C1E3420212224342627252E362DFF
:1005C0003738271E1F202122232425263333362E99
:1005D00037381F0405060708090A0B0C0D0E0F100B
:1005E0001112131415161718191A1B1C1D2F313050
:1005F000232D350405060708090A0B0C0D0E0F10F4
:100600001112131415161718191A1B1C1D2F31302F
:10061000354C290A002575002F002575005D28003E
:1006200025640020002564002000256400200025AA
:1006300064007C0025303258006D6F7573656B6502
:1006400079205B62746E7C782079207620685D2842
:100650007265702F61636C293A205B000001010113
:10066000010101010101020202020202020202036F
:10067000030303030303030404040404040405053F
:100680000505050606060606070707070708080802
:1006900008090909090A0A0A0B0B0B0C0C0C0D0DB1
:1006A0000D0E0E0E0F0F0F10101111111212131349
:1006B0001414151516161717181819191A1A1B1BC2
:1006C0001C1D1D1E1E1F202021222223242425261E
:1006D00026272829292A2B2C2D2D2E2F3031323256
:1006E000333435363738393A3B3C3D3E3F40414262
:1006F000434445464748494A4C4D4E4F5051535448
:10070000555658595A5B5D5E5F61626465666869FB
:100710006B6C6D6F7072737577787A7B7D7E80827B
:10072000838587888A8C8E8F91939596989A9C9EC4
:10073000A0A2A3A5A7A9ABADAFB1B3B5B7BABCBED4
:10074000C0C2C4C6C9CBCDCFD1D4D6D8DBDDDFE2A1
:10075000E4E7E9EBEEF0F3F5F8FAFDFF5B435D004B
:100760005B445D005B535D005B575D005B525D0069
:1007700011241FBECFEFDAE0DEBFCDBF04B603FE0B
:1007800027C08091130490911404A0911504B09196
:1007900016048730904BA740B04BD1F4109213044D
:1007A00010921404109215041092160414BE84B70B
:1007B000877F84BF0FB6F894A89580916000886108
:1007C00080936000109260000FBEE0E0F8E30995AE
:1007D00012E0A0E0B1E0EEEEF4E602C005900D926A
:1007E000AE34B107D9F724E0AEE4B2E001C01D9207
:1007F000A331B207E1F70E94AF040C9475320C9458
:100800000000FF93EF93E0914E02F0914F0230977A
:1008100009F00995EF91FF910895FC0185918030D1
:1008200011F0EFDFFBCF0895FF27E0E230E247FF52
:100830000CC0419597FF09C0EDE2609570958095D9
:100840009095611D711D811D911D27FF02C021958D
:1008500030E350E2AA27660F771F881F991FAA1F4F
:10086000A41710F0A41B63955A95A9F7AA3008F0B5
:10087000A95FA05DAF93F3956115710581059105A1
:1008800041F7ED3211F4EF93F395F21718F43F931B
:10089000F395FBCF8F91B5DFFA95E1F70895E991D4
:1008A000F9918591803021F0853219F0AADFF9CFD6
:1008B000089520E0E89455915532C1F3503311F476
:1008C000689455915A3348F4505390F3220F022EF6
:1008D000220F220F200D250FF4CF0EF421958991C0
:1008E0009991533619F3533729F1533559F1BC0116
:1008F00088279927E8945C3621F489919991689426
:100900005591543639F446EF7EF077FF0DC08FEFE6
:100910009FEF0AC055374AE039F0583540E121F0E1
:10092000523642E009F00895FF93EF937DDFEF9197
:10093000FF91B7CFFF93EF93FC0181918030B9F322
:1009400060DFFBCFFF93EF9368DFF1CFDF93CF93AF
:10095000CDB7DEB72596A3DFCF91DF910895CF9372
:10096000DF93CDB7DEB7E7970FB6F894DEBF0FBEC3
:10097000CDBF84B7877F84BF0FB6F894A8958091C8
:100980006000886180936000109260000FBE90E06C
:1009900080E80FB6F89480936100909361000FBED9
:1009A00085B7806885BF85B7806885BF8BEF9AE182
:1009B00090934F0280934E020E94AB2D0E94512EC5
:1009C0008091E20084608093E20078948091CC036F
:1009D0008823A1F01091E9001F709091EC00892FFD
:1009E000817090FD80E8182B1092E9008091E8005A
:1009F00083FD0E9422241F701093E90082E084BDD1
:100A000093E095BD9AEF97BD80936E0086EC0E94AF
:100A1000442A86E30E94442A84E30E94442A85E310
:100A20000E94442A06E211E042E3E42E41E0F42E63
:100A3000D8018D918D010E94442AE016F106C1F77C
:100A400010925302109252021092A7021092A60224
:100A500010925502109254021092A9021092A8020C
:100A600010925702109256021092AB021092AA02F4
:100A700010925902109258021092AD021092AC02DC
:100A800080E090E00E9487318A3E9E4F11F00E94E4
:100A9000A81C82E090E00E947F3180939B020E941C
:100AA000971C90935102809350020E945B2AEFEFB3
:100AB000F6E721E0E150F0402040E1F700C00000FF
:100AC0000E945B2A8091A60280FF17C06FEF83E22D
:100AD00090E00E949D316FEF84E290E00E949D3192
:100AE0006FEF85E290E00E949D316FEF7FEF80E035
:100AF00090E00E94BB310E94E31B83E090E00E94E3
:100B00007F31682F70E080E090E00E94B71E109265
:100B1000D603EFEEF3E08FEF93E02FEF3FEF21935B
:100B200031938E179F07D9F710925B02E4E7F2E04A
:100B300084E892E02FEF3FEF219331938E179F07C8
:100B4000D9F780E090E00E9487318A3E9E4F21F0E5
:100B50000E94A81C0E94E51A46E050E06CE170E09B
:100B600083E094E00E946F31809103048C7F11F444
:100B70000E94E51A83E290E00E947F318D3381F478
:100B800084E290E00E947F318B3E51F485E290E058
:100B90000E947F3191E08D3C09F090E0892F01C0E7
:100BA00080E080FFC0C588E091E090938902809347
:100BB000880283EA92E00E940D048091CC03853084
:100BC00009F04CC08FE992E00E940D0430E4F32E4E
:100BD00000E112E18091CC03853009F03BC08091A7
:100BE000CC03843019F110925A0248E150E00FB65C
:100BF000F894A895409360000FBEF092600083B710
:100C0000817F846083BF83B7816083BF7894889538
:100C100083B78E7F83BF0FB6F894A895809160004C
:100C2000886180936000109260000FBE8091CB03BA
:100C3000882309F4CFCF0E945B2AE6EAF2E0819193
:100C40009191892B09F050C58EEA92E08E179F078B
:100C5000B1F7C0CF0E94E6200E9400190E945B2AD3
:100C600081110E943C1CACE9B2E0BEABADABE6EA40
:100C7000F2E0FCABEBAB00E010E026E4222E21E03A
:100C8000322E502EABA9BCA9ED90FD90BCABABAB06
:100C9000EDA9FEA9C190D190FEABEDABCE24DF242F
:100CA000C114D104B1F40F5F1F4F0430110549F78F
:100CB0008FEF8EA78FA718AA0E94481C8160782FFB
:100CC0009AAB89AB4EA55FA568A98AA90E94361880
:100CD000F4C080919B0281FD05C0A12C88248394DF
:100CE000912C48C084E591E00E940D0486EA882E8C
:100CF00082E0982E612C712C7F926F922FE431E06C
:100D00003F932F930E94A6048CE491E00E940D046F
:100D1000D4018C9111964C90B2E08B0E911C0E94E4
:100D2000A22CA82E842D0E94A22C2A2D30E0322F36
:100D30002227F901E82BCF019F938F933F922F92A7
:100D40000E94A60484E491E00E940D04FFEF6F1A54
:100D50007F0A0FB6F894DEBF0FBECDBF34E0631636
:100D6000710451F6BACFA394880C991CECE0AE162E
:100D700009F499CFC60188219921892BA1F3A9A64D
:100D80005AA6E820F92081E0E114F10409F480E09A
:100D90008BA70E94481C8160782F9DA78CA749A52E
:100DA0005AA56BA58DA50E943618F801EE0FFF1FFE
:100DB000E456FD4F80819181882699269182808218
:100DC000EF2889F08CE0809FF001819FF00D1124C5
:100DD000EA5BFE4FEA0DF11D80818F3F21F08FAB62
:100DE000DD24D39401C0D12CC0905B020D2D10E006
:100DF000C8018C0D911D0997A4F188E090E07C0159
:100E0000E01AF10AB8016F5F7F4F655A7D4FA70165
:100E10008CE592E00E946532B801675F7F4F655AAA
:100E20007D4FA70184E692E00E946532A701440F3E
:100E3000551FB801660F771F675E7F4F655A7D4F5C
:100E400084E792E00E946532B8016F5E7F4F655A79
:100E50007D4FA7018CE692E00E946532CA94C09251
:100E60005B0280915B0290E04FA9A42FB0E09D014E
:100E7000220F331F2A583E4FAA0FBB1FBD016958CE
:100E80007E4F41E0480F9D15B0F490E0FC01E55A1B
:100E9000FD4FD9015C915183DB015C915187BFA962
:100EA000B18B880F991FFC01E55AFD4F128E118EF0
:100EB00091E0842FE6CF80935B0280918402909131
:100EC0008502A0918602B09187022FB7F894C09056
:100ED0008A02D0908B02E0908C02F0908D022FBF9E
:100EE000C81AD90AEA0AFB0A0E943C1C60938402D1
:100EF000709385028093860290938702A0915B0293
:100F0000EBE5F2E02A2F30E044244A94542C612C83
:100F1000712C4C185D086E087F08A31799F0418D5D
:100F2000528D4A01A12CB12C481459046A047B0447
:100F300010F4215004C04C0D5D1D528F418F3F5F56
:100F40003296EBCF20935B0230910304232F237062
:100F500021F0F32EF694F69401C0F12C20911601A5
:100F60002130E9F038F0223009F45BC0233009F475
:100F700061C07DC0109213016093FF037093000461
:100F8000809301049093020489E2EBE5F2E0A6ED80
:100F9000B3E001900D928A95E1F781E03FC0909116
:100FA0000501F9120DC0832F837090E04091040178
:100FB00050E021E08417950709F420E0822F01C05A
:100FC00081E0817080931501809108049091140153
:100FD000981709F4C1C38093140140E060E080E0F9
:100FE0000E945D1AB9C380911501882329F040E061
:100FF00060E080E00E945D1A80E0909113019F5FA5
:10100000909313018111B3C382E080931601809104
:1010100015018111ACC3F110ADC383E080931601BB
:1010200026C0F0920501832F8370809304010E94F3
:10103000D516F3CF4091FF03509100046091010455
:10104000709102042FB7F89480918A0290918B02DC
:10105000A0918C02B0918D022FBF841B950BA60B23
:10106000B70B4097A105B10510F01092160186E06C
:10107000E4E9F2E08E010F5F1F4FD80101900D925D
:101080008A95E1F7C0909602E0909702F09098025E
:10109000D0909902109296021092970210929802A4
:1010A00010929902C11003C0EE2009F451C0809142
:1010B0009202909193020E942D1C9C0190919102AA
:1010C000992309F421C62333310508F441C09F3F19
:1010D00019F09F5F90939102CC2061F00E94BC298F
:1010E0001C1414F491E001C09FEF899F802D1124FE
:1010F00080939602EE2061F00E94BC291E1414F425
:1011000091E001C09FEF899F802D11248093970269
:10111000309196023323E1F0209197022223C1F00F
:1011200055EB3503C0011124992319F090939602D1
:1011300003C081E08093960235EB2303C0011124A4
:10114000992319F09093970203C081E0809397024E
:10115000F11003C0DD2009F451C080918F029091FD
:1011600090020E942D1C9C0190918E02992309F4FB
:10117000D0C52536310508F441C09F3F19F09F5F67
:1011800090938E02FF2061F00E949A291F1414F49C
:1011900091E001C09FEF899F802D112480939802D8
:1011A000DD2061F00E949A291D1414F491E001C021
:1011B0009FEF899F802D112480939902309198028E
:1011C0003323E1F0209199022223C1F045EB34034F
:1011D000C0011124992319F09093980203C081E073
:1011E0008093980255EB2503C0011124992319F02F
:1011F0009093990203C081E08093990280919602B6
:1012000081110BC080919702811107C080919802D3
:10121000811103C08091990281110E946928CB82BB
:10122000EC82FD82DE8286E0F801A4E9B2E0019062
:101230000D928A95E1F70E94001990919A02891700
:1012400021F00E94001980939A028091CC0384308F
:1012500009F0B3CC83E08093E9008091E80082FF3D
:10126000ACCC8091E80085FF21C00E94CA2D81117D
:101270001BC040E2E42EF12C680109C08091F1000E
:10128000D6018D936D01B1E0EB1AF10869F0809100
:10129000E80085FDF3CF8091E8008B778093E8002C
:1012A0000E94CA2D882399F391E001C090E08091BB
:1012B000E8008B778093E800992309F47ECCE090D6
:1012C000AE02F090AF028981E114F10461F08E3F2B
:1012D00009F0E2C18A81833008F453C1855083301C
:1012E00008F0DAC14EC1893009F4D4C1F0F4843079
:1012F00009F47AC050F48230C1F108F066C0813040
:1013000009F0C8C11A8289E0C3C1863009F473C0EC
:1013100008F0C0C12D813E813227232732274C811E
:101320006B818A810E948F19B7C1803109F4C4C0D2
:1013300080F48D3009F462C028F48C3009F0AAC121
:1013400080E1BEC08E3009F45DC08F3009F485C0E5
:10135000A1C1823109F4B6C008F4B1C0833109F4E7
:10136000DBC08E3F09F40DC195C18A81823009F43A
:10137000D1C1833051F0813009F08CC10E943C1CF6
:101380009B838C837D836E8387C1809106019091BE
:101390000701892B09F480C18091A6029091A702D0
:1013A0009B838C838091A8029091A9029D838E8358
:1013B0008091AA029091AB029F8388878091AC02B2
:1013C0009091AD0299878A8767C18A81823009F03E
:1013D00061C16B817C818D819E810E945E3286E23B
:1013E00090E00E949D3158C14C816B818A810E949E
:1013F000161A9D8396C10E94C5194EC181E08A8349
:1014000089EF46C1EA80FB80FE24EF24FE248C8015
:10141000912CEDE18E16910408F03EC16801C701E0
:10142000895F9D4F9601201B310B2815390508F067
:1014300033C1F9EFEF16F1E0FF0630F40E947F317F
:10144000D60114968C9302C0F6011482FFEFEF1AB6
:10145000FF0A2FEFC21AD20AE2CF809106019091C3
:101460000701892B09F418C1EA80FB80FE24EF24D0
:10147000FE24CC80D12C3DE1C316D10408F00CC170
:101480004801C701895F9D4F9401201B310B2C152A
:101490003D0508F001C149EFE41641E0F40628F4E7
:1014A000D40114966C910E949D31BFEFEB1AFB0A98
:1014B000EFEF8E1A9E0AE5CF0E947F19EDC085E0FE
:1014C0008A83EAC0EA80FB80FE24EF24FE248C801D
:1014D000912CFDE18F16910408F0DEC06801C70170
:1014E00087969601201B310B2815390508F0D4C0CA
:1014F00020EEE21621E0F20630F40E947F31D601A0
:1015000014968C9302C0F6011482FFEFEF1AFF0AC3
:101510002FEFC21AD20AE3CFEA80FB80FE24EF2429
:10152000FE24CC80D12C3DE1C316D10408F0B4C018
:1015300040EEE41641E0F40608F0AEC080EE91E023
:101540008E199F098C159D0508F4A6C04801C70196
:1015500087969401201B310B2C153D0508F09CC08B
:1015600050EEE51651E0F50628F4D40114966C917E
:101570000E949D31BFEFEB1AFB0AEFEF8E1A9E0A15
:10158000E6CF8A818230C9F158F48823F1F08130A6
:1015900009F082C094E399838A831B821C827CC0F9
:1015A000863009F460C0873009F46CC0853009F0DA
:1015B00073C040E250E06FEF70E0C8010E946E32ED
:1015C000809106018983EA8267C088E0E7E1F1E063
:1015D000DE01919601900D928A95E1F783E089836F
:1015E0001A821B821C8288E0FE01B196DE011596EC
:1015F00001900D928A95E1F74FC08C8190E0982F71
:1016000088272B81820F911D092E000CAA0BBB0B82
:1016100035E0880F991FAA1FBB1F3A95D1F7AC017F
:10162000BD01405E5F4F6F4F7F4F481759076A07F4
:101630007B0790F18433F1E09F07A105B10560F5C8
:10164000453321E052076105710520F044E351E084
:1016500060E070E0481B590BBC0165597E4FC80122
:101660000E94663119C081E090E09093AF028093B0
:10167000AE0282E390E09093A5028093A4020E94C0
:10168000481C0AC0809106018983EA828091A402E5
:101690008B8302C08FEF89838091CC03843009F063
:1016A0008CCA8091E9008F702091EC00922F91708C
:1016B00020FD90E8F92EF82A82E08093E9008091DD
:1016C000E80080FF0CC040E050E060E270E0C8013C
:1016D0000E94F6239091E8009E779093E8008F2D6A
:1016E0008F708093E90069CA09BD19BD09B400FE75
:1016F000FDCF8091D8008F7D8093D8008091E0004D
:1017000082608093E0008091E00081FDFCCF0E9428
:10171000E62060CA86E290E00E947F311B821C8234
:101720001D828E83B9CF60E086E290E00E949D31F9
:101730000E94C5190E947F196DE383E290E00E9428
:101740009D316BEE84E290E00E949D316DEC85E26C
:1017500090E00E949D3127CA8F2D90E0883291053C
:10176000B0F1809113018F5F809313014DCCFF2066
:1017700009F47DCC10911301E0918802F091890267
:10178000309729F00190F081E02D099501C080E0AB
:1017900081FF6DCC11508BE0189F102D11240BE0B0
:1017A000010F802F063308F085E3811708F45FCC22
:1017B000812F90E0FC01E052FE4F208123FF05C005
:1017C00020E040E06FEF0E945F1A1F5FEACFFC014C
:1017D000EA5AFF4F0C945832109113018BE0189F76
:1017E000102D11240BE0010F063308F005E3609182
:1017F000040470910504809106040E94D927E62E06
:10180000D72EC82E101708F023C2E12FF0E0DF0119
:10181000A052BE4F8C9190911401982331F02C2D41
:101820004E2D6D2DCF010E945F1A1F5FEBCF1091DF
:1018300013018BE0189F102D11240BE0010F0633CC
:1018400008F005E3D0900504E0900604C09004047D
:10185000B6018E2D0E94D927A62E972E882E609134
:1018600007046C0D7D2D8E2D0E94D927E62ED72ED4
:10187000C82E101708F0ECC1812F90E0FC01E05257
:10188000FE4F308120911401232359F030FF04C012
:101890002C2D4E2D6D2D03C0282D4A2D692D0E9413
:1018A0005F1A1F5FE6CFE09013018BE0E89EE02C0B
:1018B00011245BE0D52EDE0CF5E3FD1510F445E3B5
:1018C000D42EA0900504909006042091070430E4E3
:1018D000C32E3C2D329F312D1124C32EED1408F060
:1018E00067C00E2D10E0F801E052FE4F908180910C
:1018F00014018923B9F0F801EE0FFF1FEA5BFE4FD8
:1019000081A982958F70609104048C9D600D1124D3
:101910007A2D892D0E94D927462F282F672FC8019D
:101920000E945F1AE394DACFE09013018BE0E89E07
:10193000E02C11248BE0D82EDE0C55E35D1510F45D
:1019400005E3D02EA0900504909006042091070492
:1019500010E4C12E3C2D329F312D1124C32EED14E5
:1019600038F50E2D10E0F801E052FE4F9081809185
:1019700014018923D9F0F801EE0FFF1FEA58FE4F3A
:101980006081C69EB0011124B5E075956795BA9542
:10199000E1F780910404680F7A2D892D0E94D927E0
:1019A000462F282F672FC8010E945F1AE394D7CFD4
:1019B00081E044E34D1508F020CB1ECB10911301BC
:1019C0008BE0189F102D11240BE0010F063308F057
:1019D00005E3D0900404E0900504C09006046091F3
:1019E00007046695669566958091FF0390910004C3
:1019F0000E94CF270E947D27805887FD8195880F00
:101A0000582F2C2D529F512D1124852F6D2D7E2D59
:101A10000E94D927E62ED72EC82E101708F018C11D
:101A2000E12FF0E0DF01A052BE4F8C9190911401A4
:101A3000982331F02C2D4E2D6D2DCF010E945F1A71
:101A40001F5FEBCF8AEA96E102C08EE796E10E9423
:101A5000FD21D3CA8FEE97E102C080ED97E10E948D
:101A6000A121CBCA85EB97E11AC089E997E117C09C
:101A70008CE796E1ECCF83E796E1E9CF8AE696E141
:101A8000E6CF8FE496E1E3CF80E496E108C08DE0F5
:101A900098E1E5CF88E897E1E2CF84E797E10E94FB
:101AA0002521ABCA82E196E105C080EE95E102C036
:101AB00082EA95E10E944B22A0CA80911501811112
:101AC0001EC06091070420E1620F08F46FEF80915F
:101AD000FF03909100040E94CF276AE070E00E940B
:101AE0003032892B09F088CA0E94563165E370E0D4
:101AF0000E944432609114010E94831A7DCA809131
:101B000013010BE0809F002D1124EBE0EE2EE00E80
:101B100035E33E1510F475E3E72E10E0CE2CD12C02
:101B20000C151D0544F460911401C8010E94831A2C
:101B30000F5F1F4FF5CF81E044E34E1508F05DCAFB
:101B40005BCA8091150181111EC06091070420E1DC
:101B5000620F08F46FEF8091FF03909100040E94E0
:101B6000CF2765E070E00E943032892B09F044CA2B
:101B70000E94563165E370E00E9444326091140186
:101B80000E94611A39CA809113010BE0809F002DD9
:101B900011246BE0E62EE00E55E35E1510F455E3DC
:101BA000E52E10E0CE2CD12C0C151D0544F46091CF
:101BB0001401C8010E94611A0F5F1F4FF5CF81E029
:101BC00094E39E1508F019CA17CA109113018BE00F
:101BD000189F102D11240BE0010F063308F005E3C8
:101BE000D0900504E0900604C090040460910704BE
:101BF0006695669566958091FF03909100040E941A
:101C0000CF270E947D27805887FD8195880F682FF8
:101C10002CE0629F612D11246C0D7D2D8E2D0E9474
:101C2000D927E62ED72EC82E101790F4E12FF0E01A
:101C3000DF01A052BE4F8C9190911401982331F096
:101C40002C2D4E2D6D2DCF010E945F1A1F5FECCF02
:101C500081E0053308F4D1C9CFC980E597E1F7CE1B
:101C600081E995E1F4CE8AE895E102C084E895E146
:101C70000E94AC22C2C98091D60321E0382F321BCA
:101C800008F430E0832F6BE675E13BC06BE675E14D
:101C900037C08091D60321E0482F421B08F440E072
:101CA000842F63E375E12DC063E375E129C0809162
:101CB000D60321E0582F521B08F450E0852F61E035
:101CC00075E11FC061E075E11BC08091D60321E082
:101CD000382F321B08F430E0832F69EE74E111C015
:101CE00069EE74E10DC08091D60321E0482F421BBC
:101CF00008F440E0842F63ED74E103C063ED74E108
:101D000080E00E94212379C92D32314008F0E1C9D9
:101D10001FCA2D32314008F032CA70CA4F925F920A
:101D20006F927F929F92AF92BF92CF92DF92EF928B
:101D3000FF920F931F93CF93DF93CDB7DEB7299711
:101D40000FB6F894DEBF0FBECDBFFC01808191813C
:101D500023813481232B31F09F3F31F491E08F3F79
:101D600019F403C091E001C090E090FDEEC57F0141
:101D700085E0DE01119601900D928A95E1F7F70159
:101D8000228189819A81222349F00E947D1D182F8A
:101D9000682F89819A810E941F1E03C00E94F31D33
:101DA000182F69817A81812F0E94441A8C01F701D2
:101DB0008281882309F482C0980122513F45203155
:101DC000310508F093C08FEF93E00E947F318111BD
:101DD0007FC02EEED22ED00E07E012E0DD2071F093
:101DE0000115F4E01F0709F473C0C8010E947F3198
:101DF000811101C0DA940F5F1F4FF0CF1E821F8246
:101E000018861986AA24AA9468012FEFC21AD20A4A
:101E1000C8010E947F318E831F82882309F458C035
:101E2000813009F046C0380132E0630E711CC601F2
:101E30000E947F318F83882309F44AC09FEF980F57
:101E4000933060F4680183E0C80ED11CC3010E9486
:101E50007F31888781112DC08601D6CF843011F063
:101E60006301FACFC3010E947F31B82E680194E06C
:101E7000C90ED11CC80103960E947F31BB2041F1DD
:101E8000882331F1282F30E021503109A29EA00192
:101E9000A39E500D11248B2D90E00197840F951F68
:101EA0000197D0F2EFE9FFE03197F1F700C00000B1
:101EB000F7CFCE0106960E94B42CCECF00313FE57D
:101EC000130709F039C581E00E94541E0E94F120D9
:101ED0008091B603877009F438C5F70182818823A1
:101EE00009F433C582E00E94791E2FC50031FFE559
:101EF0001F0711F481E005C001312FE5120721F41D
:101F000082E00E94961EE2CF033FFCE51F0749F4E2
:101F100006E221EE40EE63EF7CE5C7010E940C195A
:101F2000D7CF043F2CE5120708F049C1083D3CE536
:101F3000130731F407E225EE45EE68ED7CE5EDCFC1
:101F4000093D9CE5190731F408E221E045EE69ED11
:101F50007CE5E3CF073DECE51E0731F406E221EE18
:101F600041EE67ED7CE5D9CF882309F45DC110927D
:101F7000B00202302CE5120708F440C106313CE5FE
:101F8000130730F0C8018A5F9C45099708F036C1F5
:101F90000E94971C909351028093500200318CE56F
:101FA000180709F4C3C008F041C00830ECE51E076B
:101FB00009F49AC0F0F404302CE5120709F487C044
:101FC00068F402308CE5180709F477C003301C452B
:101FD00009F0E5C080915002826076C00630ECE5E1
:101FE0001E0709F46EC008F07BC080915002886023
:101FF0006BC00C302CE5120709F485C068F40A3078
:102000008CE5180709F474C008F079C00E94E62036
:1020100080915002806858C00E30ECE51E0709F42C
:1020200076C008F07FC0809150028BC00B3F2CE53A
:10203000120709F44FC018F503318CE5180709F4AD
:102040007DC078F40131ECE51E0709F473C002315C
:102050001C4509F0A4C00E94E620809150028F77B1
:1020600033C005312CE5120709F472C008F486C0AC
:102070000A3F1C4509F093C0809151023EC00F3FBA
:102080009CE5190709F45FC058F40D3FFCE51F07F4
:1020900009F444C008F43FC08091510282602DC011
:1020A00001303DE5130709F475C008F45DC0023046
:1020B0001D4509F074C060E06EC0809150028160DF
:1020C00003C08091500280618093500268C080916B
:1020D000500211C0809151028260809351025FC012
:1020E000809150028062F0CF809150028064ECCFEA
:1020F0008091500288608460E7CF8160EECF80914C
:1021000050028E7FE1CF809150028D7FDDCF809194
:102110005002877FD9CF8091510218C0809151021F
:102120008D7FDBCF809150028F7ECECF8091500289
:102130008F7DCACF809150028F7BC6CF8091500295
:10214000877F8B7FC1CF809151028D7F8E7FC5CFDE
:102150008091500282FB222720F991E0922790FB88
:1021600082F990FB83F9B0CF80915102982F90951E
:1021700091708E7F892B90FB81F9AFCF0E94E62072
:102180008091500287FB222720F991E0922790FB53
:1021900087F99ACF61E08EE090E00E949D316091D6
:1021A00050021091510284E090E00E949D31612F15
:1021B00082E290E00E949D310E94E62089CE053F98
:1021C000FCE51F0731F406E221EE42EE65EF7CE507
:1021D000A4CE053F2CE5120730F407E225EE44EECD
:1021E00064EF7CE59ACE063F3CE5130709F0BCCED0
:1021F00007E225EE46EE66EF7CE58FCE8091B903CF
:1022000006319CE5190749F58A7A91E009F490E0D6
:102210009093B102882311F065E301C069E287E57C
:1022200093E00E947D1C16C006311C4509F0DEC0FB
:102230008091B102882309F486C385E3E7E5F3E0E2
:102240002DE533E09281891301C0128231962E1759
:102250003F07C1F70E94191D3BCE82720A3CECE594
:102260001E0709F47BC098F5053C2CE5120709F41C
:1022700061C0B8F4033C9CE5190709F451C008F0AB
:1022800054C0023CFCE51F0709F07FC09091030495
:1022900081E0892780930304109216010E94C91AD5
:1022A00017CE073C2CE5120709F44EC008F447C0CE
:1022B000083C9CE5190709F44CC0093CECE51E07F5
:1022C00009F063C04BEF56E167E077E155C00F3C82
:1022D000FCE51F0709F455C098F40C3C3CE51307D6
:1022E00009F446C008F43FC00D3CECE51E0709F4B4
:1022F00046C00E3CFCE51F0709F047C085E042C020
:10230000063D2CE5120730F4013D1C4508F0E0CDF8
:1023100082E138C00D358DE5180709F4D9CD35C0F7
:102320004DE357E166E477E127C046E457E16DE30A
:1023300077E122C04BE257E164E377E11DC044E35B
:1023400057E16BE277E118C043E157E16FE177E1D4
:1023500013C04FE157E163E177E10EC047E057E179
:102360006BEF76E109C04BED5AE161ED7AE104C013
:1023700041ED5AE16BED7AE10E94571AA9CD81E057
:1023800001C08DE00E940F21A3CD0A359DE51907FC
:1023900041F150F40115FCE51F07A9F00E3D1C4565
:1023A00029F50E94A81C94CD0B353DE51307D9F003
:1023B0000C351D45D9F48091510282FB882780F9A4
:1023C00091E0892711C00E94E6209FEFE4E3FCE042
:1023D0009150E040F040E1F700C000000E94E31B94
:1023E00077CD81E001C080E00E94631DF70182810A
:1023F00000811181882349F0C8010E947D1DD82EDB
:10240000682FC8010E941F1E04C0C8010E94F31D4E
:10241000D82EB8018D2D0E94132B8C01982EF70118
:10242000D280A580A2949FE0A9228091B6038770F4
:1024300099F0DD2089F0812F807F803421F080E2C7
:10244000800F883048F082E00E94791E8091B603A8
:102450008770CC24C3948111C12CB12EB2948FE02B
:10246000B8228B2D90E08C30910508F047C2FC011A
:10247000E258FF4F0C945832812F807F1F708823C1
:1024800011F01295107FDD20B9F0112309F421C25B
:1024900080E2800F883010F0911006C08091B9035F
:1024A000182B1093B90305C08091B803182B109313
:1024B000B8030E94191D0DC2802F0E944E301123B7
:1024C00009F41CC2005E1095083010F0911006C08F
:1024D0008091B90318231093B90305C08091B80304
:1024E00018231093B8030E94191D08C2812F807F02
:1024F0001F70803211F01295107F992021F0F1E0C9
:102500009F1611F130C0DD20B1F0AA2081F001E06A
:10251000A0120DC08091510282FDF0C18091BA03DA
:10252000182B181709F4EAC11093BA03E7C1809178
:10253000BA03812B10C0AA2021F021E0A21609F4D1
:10254000DDC10E94131D27C0DD2041F035E03A15A2
:1025500008F4D4C1812F0E944430D0C184E08A1590
:1025600008F4CCC118C0DD2049F0AA2099F3F70186
:10257000858180FFAEC18F708583ECCFAA2059F092
:10258000093309F0B8C1FFEF17EE23E0F150104016
:102590002040E1F7AEC1812F0E943930AFC1812FB9
:1025A00086958695837019F0813059F0A7C1DD209A
:1025B00019F0C801937002C080E090E00E94EA1810
:1025C0009DC1DD2019F0C801937002C080E090E049
:1025D0000E94D41893C1802FDD2029F00E94DC29AD
:1025E0000E94692802C00E9415290E94692886C19C
:1025F000812F837009F06AC0D11084C1902F929509
:1026000096959770990F990F802F8F70482E512CA7
:10261000612C712C092E04C0440C551C661C771CBF
:102620000A94D2F704FF12C04FE050E060E070E07F
:1026300004C0440F551F661F771F9A95D2F7DB0120
:10264000CA0180959095A095B09503C080E090E078
:10265000DC0116951695412F43704230D9F068F58C
:102660000091BB031091BC032091BD033091BE03C8
:10267000413059F084299529A629B729BC01CD01FB
:1026800060237123822393231EC0402A512A622A89
:10269000732A13C084299529A629B7290091BB0361
:1026A0001091BC032091BD033091BE03BC01CD014C
:1026B000602771278227932706C0BC01CD016429BA
:1026C0007529862997290E94B71E18C1DD2019F0A7
:1026D000812F817001C08695882309F413C1902F42
:1026E000929596959770990F990F802F8F70482E1D
:1026F000512C612C712C092E04C0440C551C661CF5
:10270000771C0A94D2F704FF12C04FE050E060E05B
:1027100070E004C0440F551F661F771F9A95D2F7CB
:10272000DB01CA0180959095A095B09503C080E02B
:1027300090E0DC0116951695412F43704230D9F098
:1027400068F50091090410910A0420910B0430915E
:102750000C04413059F084299529A629B729BC01D8
:10276000CD01602371238223932388C0402A512AFC
:10277000622A732A13C084299529A629B7290091B2
:10278000090410910A0420910B0430910C04BC013F
:10279000CD01602771278227932770C0BC01CD012E
:1027A000642975298629972969C01F70DD2029F0C1
:1027B000812F0E94961E802FCECE802F0E9439300E
:1027C000812F49C0802F32EF931609F440C039158C
:1027D00038F090EF991661F0E1EF9E1699F174C010
:1027E000F3EF9F16D9F124EF921609F44EC06CC096
:1027F000DD2019F134E03A1508F480C01F7181E042
:1028000090E0A0E0B0E0AC01BD0104C0440F551F52
:10281000661F771F1A95D2F78091090490910A04D8
:10282000A0910B04B0910C048A019B010827192781
:102830002A273B27C901B80121C025E02A1508F441
:102840005DC0DCCFDD2029F0812F8F7130C0DD200D
:10285000D9F3812F8F710E94541E50C0DD2089F062
:102860001F7181E090E0A0E0B0E0BC01CD0104C0A8
:10287000660F771F881F991F1A95D2F70E944A1E6C
:102880003DC060E070E0CB01F9CFDD2099F01F7111
:10289000812F0E94961E8091510282FD07C038E070
:1028A000139FC001112483608093B603812F0E947F
:1028B000961E24C081E00E94791E81E08A15F0F402
:1028C00082E00E94791E1AC0DD2039F0AA2009F4A6
:1028D000BBCF802F0E948D3011C0AA2009F4B9CF40
:1028E000893349F49FEFE7EEF3E09150E040F04088
:1028F000E1F700C00000802F0E944E3088EF8B0D62
:10290000843010F40E940019CC20F9F08091B603B5
:1029100080FD1BC0F70112828595859585950E94E3
:10292000961EC7010E948E0E8091B60385958595EF
:1029300085950E94541E09C001319FE5190709F0D1
:10294000E3CA82E0C1CA89E279CC29960FB6F8942D
:10295000DEBF0FBECDBFDF91CF911F910F91FF90D2
:10296000EF90DF90CF90BF90AF909F907F906F904F
:102970005F904F900895E2EBF2E093E0E135F907C4
:1029800029F08183608342833396F7CF0895FC0159
:10299000EE0FFF1F8E0F9F1FFC01EE54FD4F618352
:1029A000408322830895EF92FF920F939701201B9B
:1029B00031092F3F310519F010F02FEF30E020954D
:1029C000382F320F08F43FEF832F0F91FF90EF90D5
:1029D0000895EF92FF920F939701201B31092F3F2B
:1029E000310519F010F02FEF30E0322F3095482FDD
:1029F000430F08F44FEF842F620F0F91FF90EF9079
:102A00000895EF92FF920F93972F093438F4B7018E
:102A1000601B71096F3F710519F010F06FEF70E0E6
:102A2000485F5F4F4131510540F0A901485F5F4F5A
:102A30004131510510F06FEF70E06095482F460F5F
:102A400008F44FEF842F37FF02C02D5F3F4F3595BD
:102A500027953595279560910404620F792F0F9182
:102A6000FF90EF900895EF92FF920F93E00EF11C0C
:102A7000F90137FF03C0F195E195F10924E0EE0F6C
:102A8000FF1F2A95E1F7EF3FF10519F014F0EFEF82
:102A9000F0E09A0157FF03C031952195310994E088
:102AA000220F331F9A95E1F72E173F070CF4F90117
:102AB000EE0DFF1DEF3FF10519F010F0EFEFF0E024
:102AC0002E2F2095382F320F08F43FEF832F0F91D0
:102AD000FF90EF900895EF92FF920F93970195E08A
:102AE000099F200D311D11242F3F310519F010F0E1
:102AF0002FEF30E02095382F320F08F43FEF832F6F
:102B00000F91FF90EF90089522E8241B08F420E035
:102B1000620F08954095282F429F412D1124842F44
:102B20000895E42FF0E0EE0FFF1FEA58FE4F90816A
:102B3000921B97FD9195292F38E1239F212D112478
:102B4000620F08950F931F9310E0F801EE0FFF1F1F
:102B5000EA58FE4F9081905797FD9195000F111FF5
:102B6000F801EA5BFE4FE1A9F0E0B097DF01AA0FA0
:102B7000BB1F8D010E0F1F1F2003D001219FB00D21
:102B80001124E8E3F0E0E91BF10997FDF3959F01BB
:102B9000220F331F89010E0F1F1F40039001419F19
:102BA000300D11242A0F3B1F37FF02C021583F4F21
:102BB000220F232F221F330B620F1F910F910895B5
:102BC0000F931F93522F10E0F801EE0FFF1FEA5BE7
:102BD000FE4FE1A9F0E0B097EE0FFF1F9F015203F7
:102BE000D001539FB00D1124000F111FF801EA58B6
:102BF000FE4F008110E000571109000F111F400324
:102C00009001419F300D11242A0F3B1F37FF02C056
:102C100021583F4F220F232F221F330B620F1F918A
:102C20000F9108950F931F93522F10E0F801EE0FAC
:102C3000FF1FEA5BFE4FE1A9F0E0B0979F0152034E
:102C4000D001539FB00D1124000F111FF801EA5855
:102C5000FE4F008110E00057110940039001419F91
:102C6000300D11242A0F3B1F37FF02C021583F4F60
:102C7000220F232F221F330B620F1F910F910895F4
:102C8000EF920F931F9393E0099F800111241595F4
:102C900007956E2D600F1F910F91EF900895A22F51
:102CA00050E0FA01EE0FFF1FEA5BFE4F91A9905230
:102CB00097FD9195440F551FFA01EA58FE4F308158
:102CC000232F30E02A1B3109290F311D97FD3A953A
:102CD000620F0895E42FF0E0EE0FFF1FEA5BFE4F56
:102CE00061A9621B0895E42FF0E0EE0FFF1FEA5880
:102CF000FE4F6081621B0895622F0895E42FF0E07B
:102D0000EE0FFF1FEA58FE4F408134EE439F412DE6
:102D10001124E82FF0E050E0445E5F4FDA01A21B7F
:102D2000B1099D01B7FF03C031952195310993E0A9
:102D3000220F331F9A95E1F7AF01421B530B9A0103
:102D400057FF02C020E030E0582F259F212D11248D
:102D5000822F0895E42FF0E0EE0FFF1FEA58FE4F98
:102D6000408134EE439F412D1124E72FF0E050E0E5
:102D7000445E5F4FDA01A21BB1099D01B7FF03C09A
:102D800031952195310993E0220F331F9A95E1F790
:102D9000AF01421B530B9A0157FF02C020E030E005
:102DA000279F212D1124722F08956A9A8EB18B7F4F
:102DB0009EB194602FB7F894E2EBF2E033E0E13596
:102DC000F30789F0319148E09EB9000000C037FF59
:102DD0008EB9330F000000C000C000C08EB900C023
:102DE0004A9591F7EBCF2FBF8FE594E00197F1F76C
:102DF00000C000000895E3E0F4E0438120E1421BBD
:102E000008F440E08181628190E00C94E923E3E0E2
:102E1000F4E0438120E1420F08F44FEF81816281A9
:102E200090E00C94E923E3E0F4E0628120E1621B8E
:102E300008F460E08181438190E00C94E923E3E0B1
:102E4000F4E0628120E1620F08F46FEF8181438139
:102E500090E00C94E923E3E0F4E0818190E0438189
:102E6000628108970C94E923E3E0F4E0818190E02B
:102E70004381628108960C94E9238091030486952E
:102E80008695815009F487E20C940F218091030408
:102E9000869586958F5F883208F081E00C940F212B
:102EA0000F931F93CF93DF93D62F072F182FC42F85
:102EB000822F0E947D27EC2FF0E0EE0FFF1FEA58D3
:102EC000FE4F90819058890F87FD8195880F682F5C
:102ED0002CE0629F612D11246D0F702F812FDF91E7
:102EE000CF911F910F910895EF920F93CF93DF939E
:102EF000D72FC82FC9010E19BA010E944A27602F87
:102F0000681B7D2F8C2FDF91CF910F91EF9008954B
:102F10000F93CF93DF93D72FC82FC901BA010E9417
:102F20004A27682F600F7D2F8C2FDF91CF910F9153
:102F30000895EF920F931F93CF93DF93D62FC72F50
:102F4000182FC9010E19010FBA010E944A27081B48
:102F5000202F219F212D1124822F6D2F7C2FDF9177
:102F6000CF911F910F91EF900895EF920F931F93C0
:102F7000CF93DF93D62F172FC82FC9010E19070F34
:102F8000BA010E944A27702F781B719F712D11245E
:102F90006D2F8C2FDF91CF911F910F91EF9008959E
:102FA000FF920F931F93CF93DF93F62ED72F182FF7
:102FB000C901C12FC01BBA010E944A27982F990F3F
:102FC000890FC81B2C2F219F212D1124822F6F2D9B
:102FD0007D2FDF91CF911F910F91FF900895FF9268
:102FE0000F931F93CF93DF93F62E172FD82FC9017E
:102FF000C72FC01BBA010E944A27982F990F890F2B
:103000007C2F781B719F712D11246F2D8D2FDF91D7
:10301000CF911F910F91FF9008950F93CF93DF935E
:10302000D72FC82F47FD4195E8E3F0E0CF01841B7F
:10303000910947FD9395889FB001899F700D700D90
:103040001124229FC001239F900D900D1124860F03
:10305000971F0E949E27682F660F860F682F600FAC
:103060007D2F8C2FDF91CF910F9108951F93CF93D8
:10307000DF93CDB7DEB767970FB6F894DEBF0FBE0C
:10308000CDBF342F4B8B252F5C8B6D8B7E8B8F8B25
:103090004E895F8961111092B80386E0FE013D966A
:1030A000DF01982F1D929A95E9F73D872E876F874C
:1030B000598B488BDE01179601900D928A95E1F7A6
:1030C000CE0107960E94371F81113EC086E0FE01A7
:1030D0003796DE01119601900D928A95E1F7FF81F6
:1030E000E8856A857B856115710531F0EF3F31F424
:1030F00081E0FF3F19F403C081E001C080E080FD62
:1031000023C02091660330E0C9010196877099279A
:103110004091970350E08417950779F1F983EA838A
:103120007D836C8396E0929FD001939FB00D112414
:10313000A959BC4FFE01319601900D929A95E1F785
:10314000809366030E94C11E16E0809197039091C0
:1031500066038917F9F0189FC001112489599C4F03
:103160000E94371F8823B1F08091970390E0019669
:103170008770992780939703E8CF0E94E6201092EA
:10318000660310929703E0E6F3E086E0DF011D920C
:103190008A95E9F767960FB6F894DEBF0FBECDBFEC
:1031A000DF91CF911F9108952091550330915603DF
:1031B0002817390771F09093560380935503E091D7
:1031C0008802F0918902309721F00084F185E02D8A
:1031D0000994089520915303309154032817390717
:1031E00071F09093540380935303E0918802F0911F
:1031F0008902309721F00680F781E02D0994089527
:10320000E0918802F0918902309721F00190F081DD
:10321000E02D099480E008950F931F93CF93DF93DF
:10322000C42FD22FFC0182818823C9F04093B002C1
:103230000E94481C909352038093510380E28C0FAC
:10324000883008F057C0C77081E001C0880FCA9568
:10325000EAF7DF91CF911F910F910C944430809148
:10326000B002481330C080915103909152030E94E4
:103270002D1C883C910538F510E21D0FCD17B9F0D3
:1032800080E28C0F883040F4C77081E001C0880F65
:10329000CA95EAF70E943930183028F581E09D2F51
:1032A000977001C0880F9A95EAF70E944430802FEA
:1032B0000E94EC301830F0F4D77081E001C0880F24
:1032C000DA95EAF70AC080E28C0F883098F4C7706C
:1032D00081E001C0880FCA95EAF7DF91CF911F9175
:1032E0000F910C943930802FDF91CF911F910F9166
:1032F0000C94EC30DF91CF911F910F910895CF93F3
:10330000DF93C7E0D2E060E0CE010E949D312196BC
:10331000C11584E0D807B9F7DF91CF9108950F93D5
:103320001F93CF93DF93853058F5643048F54C30C8
:1033300038F521159CE5390731F4E0910601F0914B
:103340000701EF2BE9F08901C42FD0E0CC0FDD1F7E
:1033500098E1699FC00DD11D112490E6899FC00D91
:10336000D11D1124612FCE0187960E949D31602FBF
:10337000CE018896DF91CF911F910F910C949D31D2
:10338000DF91CF911F910F9108958F929F92AF92ED
:10339000BF92CF92DF92EF92FF920F931F93CF9342
:1033A000DF93C0900601D090070181E090E09093F8
:1033B000070180930601812CE12CF12C912C00E077
:1033C00010E0C0E0D0E05701A00EB11EFE01EE0FEC
:1033D000FF1FEA0DFB1DEC54FD4F259134914C2F3E
:1033E000692D882D0E948F192196CC30D10571F757
:1033F000085E1F4F939484E09812E3CF80E6E80EB6
:10340000F11C839485E08812D9CFD0920701C09235
:103410000601DF91CF911F910F91FF90EF90DF9008
:10342000CF90BF90AF909F908F9008950F931F9370
:10343000CF93DF93853008F56430F8F44C30E8F42E
:10344000C42FD0E0CC0FDD1F28E1629FC00DD11D3D
:10345000112430E6839FC00DD11D1124CE01879623
:103460000E947F3190E0182F0027CE0188960E949D
:103470007F319801282BC90102C080E090E0DF91E4
:10348000CF911F910F910895462F2091AE02309158
:10349000AF02232B49F4853038F4743028F46C30B3
:1034A00018F4672F0C94161A80E090E00895882392
:1034B00011F0FA0101C0FB0109940C94BB140C94A7
:1034C000C7141F93CF93DF93FC01E052FE4F20817E
:1034D0006223A9F0EC010E945631182F0E94563148
:1034E000612F782F809106040E94D927462F282F1C
:1034F000672FCE01DF91CF911F910C945F1ADF915E
:10350000CF911F910895DF92EF92FF920F931F9337
:10351000CF93DF93EC01FC01E052FE4F90816923D1
:1035200081F1D09005040091060410910404E12E6D
:10353000F12C0E945631282FC7018C549F4F68E60A
:1035400071E00E9444328E199F0997FD039695956C
:103550008795959587952370612F289F600D11247D
:103560007D2D802F0E94D927462F282F672FCE012F
:10357000DF91CF911F910F91FF90EF90DF900C940E
:103580005F1ADF91CF911F910F91FF90EF90DF9025
:10359000089546E050E06CE170E083E094E00C9424
:1035A0008D31E3E0F4E0248130E1230F08F42FEFC4
:1035B00024830C94C91AE3E0F4E0248130E1231B56
:1035C00008F420E024830C94C91AE3E0F4E085E3D6
:1035D000808380911F0190912001A091210181831E
:1035E0009283A3838FE784838FEF85830C94C91A1A
:1035F0008091C10308959FB7F894109210049FBF63
:103600009091CC03943009F057C09091E9009F70DD
:103610003091EC00232F217030FD20E8922B25E023
:103620002093E9002091EB0020FF43C02091EE00A1
:1036300027FF3FC02091BF03222321F02091E80003
:1036400025FF37C01092BF0326E03091E80035FD1A
:1036500015C03091CC03343061F53091EB0035FD6D
:1036600028C0215021F481E08093BF0322C0EFE9FC
:10367000FFE03197F1F700C00000E7CF8093F10041
:103680008091E80085FD0AC08091E80080FFFCCFB2
:103690008091E8008E778093E80006C08FB7F89499
:1036A00021E0209310048FBF9F709093E90080E089
:1036B00008959F709093E9008FEF0895CF93DF9363
:1036C00000D01F92CDB7DEB79091CC03943011F5A6
:1036D00089837B836A839093E9008FEF9091E80060
:1036E000815095FD06C095ED9A95F1F70000811186
:1036F000F5CF8091E80085FF0DC040E050E063E029
:1037000070E0CE0101960E94F6238091E8008E774A
:103710008093E8000F900F900F90DF91CF91089564
:10372000BC0184E00C945E1BBC0183E00C945E1B26
:1037300024E02093E9002FEF3091E800215035FD7F
:1037400006C035ED3A95F1F700002111F5CF209133
:10375000E80025FF0BC040E050E066E070E00E940A
:10376000F6238091E8008E778093E8000895CF9348
:10377000DF9321E02093E9002FEF3091E800215002
:1037800035FD06C035ED3A95F1F700002111F5CF72
:103790002091E80025FF14C0EC0140E050E068E013
:1037A00070E00E94F6238091E8008E778093E80015
:1037B00088E0FE01A2ECB3E001900D928A95E1F75A
:1037C000DF91CF91089581E08093E00080E28093C3
:1037D000D8001092C9008FE19EE40197F1F700C074
:1037E000000087E090EBDC018093130490931404B5
:1037F000A0931504B09316049CE088E10FB6F894EA
:10380000A895809360000FBE90936000FFCF7894DE
:103810001F920F920FB60F9211248F939F93AF9325
:10382000BF9380918A0290918B02A0918C02B091FB
:103830008D020196A11DB11D80938A0290938B0287
:10384000A0938C02B0938D02BF91AF919F918F9105
:103850000F900FBE0F901F9018959C014FB7F894D2
:1038600080918A0290918B02A0918C02B0918D027E
:103870004FBF821B930B08952FB7F89460918A0273
:1038800070918B0280918C0290918D022FBF0895D0
:103890002FB7F89480918A0290918B02A0918C02AC
:1038A000B0918D022FBF08951F920F920FB60F9205
:1038B00011248F939F93AF93BF9380915A028111EC
:1038C00013C080918A0290918B02A0918C02B091DA
:1038D0008D024196A11DB11D80938A0290938B02A7
:1038E000A0938C02B0938D02BF91AF919F918F9165
:1038F0000F900FBE0F901F9018959C01FC013296FF
:103900009FEF80E04191461789F09F3F19F44111E4
:1039100001C0982F8F5F8630A9F79F3F39F0F901DA
:10392000E90FF11D97FDFA95628308950895CF93ED
:1039300084E090E00E947F31C82F82E290E00E94F4
:103940007F312C2F30E0A901582BCA01CF91089567
:103950006AEE7EEF80E090E00E94BB3160E082E0A2
:1039600090E00E949D3160E083E090E00E949D31F4
:103970001092BB031092BC031092BD031092BE03C1
:1039800060E084E090E00E949D3160E082E290E09F
:103990000E949D3160E085E090E00E949D3160E0F2
:1039A00086E090E00E949D316FEF87E090E00E94FA
:1039B0009D3140E050E0BA0188E090E00E94AF31D4
:1039C00060E08DE090E00E949D3140E050E0BA015F
:1039D00088E190E00E94AF3160E087E190E00E94D2
:1039E0009D3140E050E0BA018CE190E00E94AF319F
:1039F00060E070E080E290E00E94BB3140E050E087
:103A0000BA0188E190E00E94AF3140E050E0BA0195
:103A10008FE090E00E94AF3140E050E0BA0183E1D6
:103A200090E00C94AF318091BA0381111092BA03E7
:103A300008959091B9038091B803892B2091B70321
:103A4000982F922B909357038091BA03882389F083
:103A5000892B80935703E9E5F3E097E080E09150EC
:103A600029F021912223D9F38F5FF9CF81110E9490
:103A7000131DE0918802F0918902309731F00280A5
:103A8000F381E02D87E593E00994089580E090E0CC
:103A90000E94EA1880E090E00E94D4181092B803C7
:103AA0001092B7030E94191DE4E9F2E086E0DF01FD
:103AB0001D928A95E9F71092910210928E0210924F
:103AC0005F030C946928CF93C0915102C2FB9927E0
:103AD00090F9981781F080FBC2F9C0935102609170
:103AE000500284E090E00E949D316C2F82E290E0D1
:103AF000CF910C949D31CF910895BF92CF92DF92D8
:103B0000EF92FF920F931F93CF93DF938C01C0909E
:103B10000904D0900A04E0900B04F0900C0480910A
:103B2000BB039091BC03A091BD03B091BE03C82A12
:103B3000D92AEA2AFB2ACFE1D0E0D701C6010C2E10
:103B400004C0B695A795979587950A94D2F780FDFE
:103B500004C0219790F7B12C07C0BC2EB8018C2F60
:103B60000E94132B0197A9F38B2DDF91CF911F9109
:103B70000F91FF90EF90DF90CF90BF900895CF937B
:103B8000DF93EC010E947D1DBE010E94132BDF918B
:103B9000CF9108950E94BF1D292F2F70E92FE29524
:103BA000EF704E2F50E0FA013297EE30F105B8F485
:103BB000E657FF4F0C945832803F99F018F4883E36
:103BC00070F40FC0843F59F40CC0883E50F0813F20
:103BD00031F407C0822F869586958695089580E0FA
:103BE000089581E008952CE0929F800D1124682FA4
:103BF000669566956695982F977085E0689FB001E9
:103C0000112440E050E080E0FB01E40FF51FE8568E
:103C1000FC4F208130E0092E02C0369527950A948A
:103C2000E2F721703327042E01C0220F0A94EAF72D
:103C3000822B4F5F5F4F4530510531F708952CE0DF
:103C4000929F800D1124E82FE695E695E695877002
:103C500051E001C0550F8A95EAF785E0E89FF00131
:103C60001124E856FC4F20E030E070E04081CB01A9
:103C7000022E02C0969587950A94E2F7817081958D
:103C800084278523842781932F5F3F4F253031057B
:103C900069F708956093090470930A0480930B04F4
:103CA00090930C040C94461D0F931F9341E050E039
:103CB00060E070E004C0440F551F661F771F8A95AF
:103CC000D2F7409550956095709580910904909138
:103CD0000A04A0910B04B0910C048A019B010823F3
:103CE00019232A233B23C901B8011F910F910C947A
:103CF0004A1E2091B603809582238093B603982FA5
:103D0000977041F430E0482F082E000C550B241713
:103D1000350721F49091510292FF07C08595859552
:103D200085950E94541E1092B60308950F931F9319
:103D300041E050E060E070E004C0440F551F661F92
:103D4000771F8A95D2F78091090490910A04A09177
:103D50000B04B0910C048A019B01082B192B2A2B10
:103D60003B2BC901B8011F910F910C944A1E60931F
:103D7000BB037093BC038093BD039093BE030C946C
:103D8000461D8091970390916603891719F08F5F04
:103D90008770FBCF08950F931F93CF93DF9380918C
:103DA000650382958F7009F05DC08091620388235E
:103DB00009F458C0809197031091660360916003E5
:103DC00070916103C0916303D091640391E06F3FF0
:103DD00009F090E0292F06E0811709F443C02097ED
:103DE00021F07F3F21F030E003C031E001C0322FED
:103DF00090E030FD34C0089FF001099FF00D1124C0
:103E0000DF01A959BC4F11963C911197371327C078
:103E10003C91361324C012963C91129731111FC069
:103E200013964D915C9114974C1B5D0B483C5105CA
:103E3000B0F4809165038F70806180936503E459CD
:103E4000FC4F80818F708061808380E693E00E94C8
:103E50008E0EDF91CF911F910F910C94C11E019690
:103E60008770BACFDF91CF911F910F9108959F92E4
:103E7000AF92BF92CF92DF92EF92FF920F931F9378
:103E8000CF93DF93CDB7DEB761970FB6F894DEBF5F
:103E90000FBECDBF8C0185E0F801DE011D960190BB
:103EA0000D928A95E1F7F80190818181E28030914D
:103EB0006003609161034091630350916403411575
:103EC000510531F06F3F31F421E03F3F19F403C059
:103ED00021E001C020E0F22FF1709F2E20FD23C1D0
:103EE000F801C380D48020E6A22E23E0B22EF09009
:103EF0006203F601E41BF50BFF2009F4CEC020910C
:103F00006503E83CF10508F099C0422F407F09F0B5
:103F100051C0681311C039130FC0FE2CE1100CC042
:103F20002F70206120936503C5010E948E0E809141
:103F30006503F801858337C1CD2831F08F3F31F417
:103F400021E09F3F19F403C021E001C020E020FDE3
:103F500003C021E02E2502C020E030E0F22FF170F6
:103F6000FF2E20FF1DC0209197034091660356E06D
:103F7000241709F4F6C030E0529FF001539FF00D72
:103F80001124E959FC4F6181861306C060819613A4
:103F900003C06281E61204C02F5F3F4F2770E8CF55
:103FA000FE2CEE2009F4FFC08091650381608093B0
:103FB000650350C0681307C0391305C0E11003C082
:103FC000F80125838DC09D878E878D859E850E94F3
:103FD000CA1D882369F1EE2059F120916503822FD3
:103FE00082958F7090E0029774F0809160039091B9
:103FF000610398878F831986DB86CA862C87CE015A
:1040000007960E948E0E86E0F801A0E6B3E00190CC
:104010000D928A95E1F70E94CB1E0DC06817E1F062
:104020009D878E878D859E850E94CA1D81111EC029
:10403000C8010E948E0EFF24F394B5C0422F407F2A
:1040400069F780E693E00E948E0E86E0F5011192FA
:104050008A95E9F7F12CA7C03913E2CFE110E0CF40
:10406000F8012583C8010E948E0E57C0EE2001F38F
:1040700020916503822F82958F7090E002971CF249
:1040800080916003909161039A8389831B82DD8212
:10409000CC822E83CE010196B4CFE83CF105E8F541
:1040A000FE2CEE2029F2681327C0391325C0209179
:1040B000650320FD18C0822F82958F70482F50E035
:1040C0004115510581F0F80125834F30510541F02C
:1040D0008F5F982F9295907F822F8F70892B858389
:1040E000C8010E948E0E86E0F801A0E6B3E00190C0
:1040F0000D928A95E1F757C09D878E878D859E85A5
:104100000E94CA1D81117FCF8091650381608093D9
:104110006503C8010E948E0E46C086E0F50111922B
:104120008A95E9F740C0EE2009F482CF9D878E87FB
:104130008D859E850E94CA1DF82E882309F478CFAC
:1041400086E0F801A0E6B3E001900D928A95E1F7D0
:1041500080916003909161030E94BF1D0E94CB1E5D
:1041600022C09D878E878D859E850E94BF1D292F29
:1041700022952F70223028F49F7039F0811105C0EC
:104180000BC0243028F49F7049F4805E883020F002
:10419000C8010E948E0E9F2CF92C05C0F801958154
:1041A000907F99F7F9CF8F2D61960FB6F894DEBF07
:1041B0000FBECDBFDF91CF911F910F91FF90EF9078
:1041C000DF90CF90BF90AF909F9008951092B90369
:1041D00086E0E9E5F3E0DF011D928A95E9F70C94AA
:1041E000461D0F931F938091090490910A04A0919A
:1041F0000B04B0910C048C019D010670112722273D
:104200003327BC01CD01063011052105310511F41C
:10421000686001C0677F1F910F910C944A1E9091B6
:104220000304937089F0811102C0946007C0883242
:1042300010F09C6903C0880F880F982B909303049B
:10424000109216010C94C91A08956F927F928F9262
:104250009F92AF92BF92CF92DF92EF920F931F93F4
:10426000CF93DF933C01C09113018BE0C89FC02D19
:104270001124DBE0DC0FD63308F0D5E360910704AE
:1042800066958091FF03909100040E94CF27182F1C
:10429000CD1708F044C08C2E912CF401E052FE4F53
:1042A0009081809114018923C1F1F401EE0FFF1F69
:1042B000EA58FE4FC080D12C80E7C81AD108F4011B
:1042C000EE0FFF1FEA5BFE4FA1A8B12CE0E2AE1A91
:1042D000B108CC9C9001CD9C300D300D1124AA9CCE
:1042E000C001AB9C900D900D1124820F931F0E9472
:1042F0009E27082F609104047091050480910604A4
:10430000E12E9501A601F30109950E94D927462FB8
:10431000282F672FC4010E945F1ACF5FB9CF81E0B9
:10432000D53308F080E0DF91CF911F910F91EF908E
:10433000DF90CF90BF90AF909F908F907F906F90C5
:104340000895CF92DF92EF92FF920F931F93CF9336
:10435000DF936C01C09113018BE0C89FC02D112425
:10436000DBE0DC0FD63308F0D5E3609107046695F7
:104370008091FF03909100040E94CF27182FCD1742
:1043800078F5EC2EF12CF701E052FE4F90818091F0
:104390001401892319F1F701EE0FFF1FEA5BFE4FAD
:1043A00021A930E020523109F701EE0FFF1FEA5832
:1043B000FE4F408150E040575109609104047091D4
:1043C000050480910604012FF60109950E94D92762
:1043D000462F282F672FC7010E945F1ACF5FCFCFCC
:1043E00081E0D53308F080E0DF91CF911F910F91EC
:1043F000FF90EF90DF90CF900895DF92EF92FF92C1
:104400000F931F93CF93DF938C01C09113018BE027
:10441000C89FC02D1124DBE0DC0FD63308F0D5E3B4
:10442000609107046695669521E0620F08F46FEFCE
:104430008091FF03909100040E94CF27D82ECD17C2
:10444000F0F4EC2EF12CF701E052FE4F90818091B8
:104450001401892391F06091040470910504809106
:1044600006042D2D4C2FF80109950E94D927462FBF
:10447000282F672FC7010E945F1ACF5FE0CF81E02E
:10448000D53308F080E0DF91CF911F910F91FF901D
:10449000EF90DF9008959F92AF92BF92CF92DF92FC
:1044A000EF92FF920F931F93CF93DF936C01C09114
:1044B00013018BE0C89FC02D1124DBE0DC0FD63345
:1044C00008F0D5E360910704669566958091FF0337
:1044D000909100040E94CF27182F80E4810F0E9442
:1044E0007D2790E8F92EF80E812F0E947D2720E885
:1044F000922E980ECD1700F5AC2EB12CF501E0529E
:10450000FE4F9081809114018923A1F060910404F1
:104510007091050480910604E12E0C2F292D4F2D5A
:10452000F60109950E94D927462F282F672FC5012C
:104530000E945F1ACF5FDECF81E0D53308F080E0C4
:10454000DF91CF911F910F91FF90EF90DF90CF906F
:10455000BF90AF909F900895CF92DF92EF92FF921D
:104560000F931F93CF93DF938C01C09113018BE0C6
:10457000C89FC02D1124DBE0DC0FD63308F0D5E353
:104580002091070431E0230F08F42FEF30E040E0E2
:1045900050E06FEF7FEF80E090E00E94C131790141
:1045A000CD1708F041C0CC2ED12CF601E052FE4FC1
:1045B0009081809114018923A9F19091D6039150A3
:1045C00097FD15C0492F092E000C550BFA01EA5230
:1045D000FC4F8189C813F3CF440F551FFA01EA52EB
:1045E000FC4F218D328D2E153F0548F701C09701F4
:1045F0006091070441E0640F08F46FEFC9010E9465
:10460000CF27AC01609104047091050480910604E9
:10461000F80109950E94D927462F282F672FC60138
:104620000E945F1ACF5FBCCF81E0D53308F080E0F5
:10463000DF91CF911F910F91FF90EF90DF90CF907E
:1046400008952F923F924F925F926F927F928F9236
:104650009F92AF92BF92CF92DF92EF92FF920F9311
:104660001F93CF93DF93CDB7DEB727970FB6F8949C
:10467000DEBF0FBECDBF282E4B01209113018BE072
:10468000289F802D11248E83182F155F163308F074
:1046900015E33091D60339839E81911708F07CC0D1
:1046A0008E81682E712CF301E052FE4F9081809133
:1046B0001401892309F46CC030900404409005046F
:1046C000522C1F82C301880F991FDC01AA58BE4FCC
:1046D000BB83AA83C301880F991FFC01E958FE4FD1
:1046E000FD83EC83F9815F1608F040C0E52CF12CC6
:1046F000AA81BB81CC90D12CF701EA52FC4F818179
:10470000C81AD108AC81BD81AC90B12C8185A81AA2
:10471000B108CC9C9001CD9C300D300D1124AA9C89
:10472000C001AB9C900D900D1124820F931F0E942D
:104730009E27082F6091070421E0620F08F46FEFB5
:10474000F701EE0FFF1FEA52FC4F818D928D0E9400
:10475000CF277C019501A601632D742D8F81F40173
:104760000995362E472E8F835394BCCF2091060493
:104770008F81382F329F312D1124832F632D742D7B
:104780000E94D927462F282F672FC3010E945F1A46
:104790008E818F5F8E8380CF81E0153308F080E0BB
:1047A00027960FB6F894DEBF0FBECDBFDF91CF9135
:1047B0001F910F91FF90EF90DF90CF90BF90AF903F
:1047C0009F908F907F906F905F904F903F902F9031
:1047D000089590910304937041F0809304046093D2
:1047E0000504409306040C94C91A0895EF92FF92B1
:1047F0000F931F93CF93DF937C018B010E94CA2DEF
:10480000811119C0E70101151105A1F08091E8009F
:1048100085FD0AC08091E8008E778093E8000E94B1
:10482000CA2D882381F307C089918093F10001503C
:104830001109E9CF80E0DF91CF911F910F91FF9097
:10484000EF9008951F93CF93DF93CDB7DEB7AA976C
:104850000FB6F894DEBF0FBECDBFEEECF3E086EDF1
:1048600093E02091F10021938E179F07D1F780915B
:10487000CF03833009F462C030F4813071F08230AC
:1048800009F49CC0B3C08A3009F488C08B3009F4A5
:104890006DC0893009F0AAC020C08091CE03813A52
:1048A00009F0A4C08091E800877F8093E8008091A0
:1048B000D2039091D303892B21F468E082EC93E03A
:1048C00003C060E080E090E070E00E94DB2F809108
:1048D000E8008B778093E80089C08091CE03813215
:1048E00009F084C08091D2039091D303009719F00E
:1048F000029709F07BC08091E800877F8093E800F1
:104900008091E80082FD05C08091CC038111F8CF31
:104910006DC02091F3008091F20090E0922B0297FD
:1049200029F48091F1008B7F813021F48091F10096
:104930008093C1038091E8008B7754C08091CE03AF
:10494000813A09F053C08091D2039091D303892B0F
:1049500009F04CC08091E800877F8093E800809147
:10496000E80080FFFCCF8091120137C08091CE0318
:104970008132E1F58091D2039091D303892BB1F577
:104980008091E800877F8093E8000E94FD2D809150
:10499000D003809312010E94E62028C08091CE03AC
:1049A000813221F58091E800877F8093E8000E94A2
:1049B000FD2D8091D1038093C00318C08091CE0358
:1049C000813AA1F48091E800877F8093E80080918C
:1049D000E80080FFFCCF8091C0038093F1008091BC
:1049E000E8008E778093E8000E94FD2D8091E8001A
:1049F00083FFEFC18091CE039091CF03492F50E008
:104A00004A30510508F0E5C1FA01E856FF4F0C9411
:104A10005832803821F0823809F0DBC108C080911B
:104A2000CA039091CB03992389F082600FC08091D3
:104A3000D2038F70873008F0CCC18093E900809159
:104A4000EB0085FB882780F91092E9009091E8003F
:104A5000977F9093E8008093F1001092F1007DC160
:104A6000282F2D7F09F0B5C1882319F0823061F01D
:104A7000B0C18091D003813009F0ABC1933009F00F
:104A800080E08093CB032EC08091D00381112AC097
:104A90008091D2038F702FEF280F263008F099C134
:104AA0008093E9002091EB0020FF1CC0933021F49B
:104AB0008091EB00806214C09091EB009061909324
:104AC000EB0021E030E0A90102C0440F551F8A9598
:104AD000E2F74093EA001092EA008091EB008860D0
:104AE0008093EB001092E9008091E800877F80932B
:104AF000E8000E94FD2D6DC181116BC11091D003A2
:104B00001F778091E3008078812B8093E300809170
:104B1000E800877F8093E8000E94FD2D8091E800E7
:104B200080FFFCCF8091E30080688093E300111147
:104B300002C082E001C083E08093CC034AC1805868
:104B4000823008F046C12091D0033091D1032C3D32
:104B500053E0350779F583E08A838AE289834FB78A
:104B6000F894DE01139620E03EE051E2E32FF0E0FE
:104B700050935700E49120FF03C0E295EF703F5F30
:104B8000EF708E2F90E0EA3010F0C79601C0C0960B
:104B90008D939D932F5F243149F74FBF8091E8009B
:104BA000877F8093E8006AE270E0CE0101960E9460
:104BB000DB2FC1C08091D2039091D303432F55279F
:104BC00043305105B1F068F44130510509F410C18A
:104BD0004230510509F0FDC08BE790E0E9E7F4E0D1
:104BE00057C04132510589F14232510509F43CC0A8
:104BF000F0C0C901992781309105B9F070F0823079
:104C00009105D9F0039709F0E4C0E6E0F5E0E491FE
:104C10008E2F90E0E6E0F5E038C0EEE5F5E0E491B7
:104C20008E2F90E0EEE5F5E030C0E8E4F5E0E491A9
:104C30008E2F90E0E8E4F5E028C0E4E2F5E0E491AE
:104C40008E2F90E0E4E2F5E020C08430910508F07A
:104C5000C0C0880F991FFC01E25CFE4F0190F081FB
:104C6000E02D89E090E014C08430910508F0B1C0D7
:104C7000FC01EE0FFF1FEA5CFE4F0190F081E02D7A
:104C8000DC01AE5CBE4F8C9190E0009709F4A1C0AE
:104C90002091E800277F2093E8002091D4033091F1
:104CA000D5038217930708F49C0140E021153105D4
:104CB00089F18091CC03882309F43DC08530D9F176
:104CC0008091E80083FD37C08091E80082FD2FC00D
:104CD0008091E80080FFEACF4091F3008091F200DC
:104CE00090E0942B2115310559F08830910540F45E
:104CF00044914093F1003196215031090196F2CF51
:104D000041E0089709F040E08091E8008E778093B9
:104D1000E800CCCF4111CDCF0AC08091CC038823CD
:104D200051F0853041F08091E80083FD04C080910E
:104D3000E80082FFF2CF8091E8008B778093E80053
:104D400048C0803809F045C08091E800877F809393
:104D5000E8008091CD038093F1008091E8008E7788
:104D6000C6CE811136C08091D0039091D10399278E
:104D700002977CF58091E800877F8093E80010918E
:104D8000D0031093CD030E94FD2D111106C0809118
:104D9000E30087FD02C081E001C084E08093CC0382
:104DA00042E061EC81E00E941C2E42E261EC84E072
:104DB0000E941C2E42E261EC82E00E941C2E42E224
:104DC00060EC83E00E941C2E42E261EC85E00E94D0
:104DD0001C2E8091E80083FF10C08091E800877F3F
:104DE0008093E8008091EB0080628093EB0005C027
:104DF00082E190E0E4EFF4E04BCFAA960FB6F8948E
:104E0000DEBF0FBECDBFDF91CF911F91089590916E
:104E1000500292FF0DC0282F2871283019F4877F87
:104E2000846006C0282F2471243011F48B7F8860A1
:104E300093FF0DC0282F2871283119F4877E8461D3
:104E400006C0282F2471243111F48B7E88612091B3
:104E5000510220FF0DC0382F3871383019F4877F88
:104E6000816006C0382F3171313011F48E7F886037
:104E700021FF0DC0282F2871283119F4877E816108
:104E800006C0282F2171213111F48E7E886194FD96
:104E9000877E0895FC019B01009721F477FF2BC0CA
:104EA00080E80895AC0197FF04C044275527481BAC
:104EB000590BB901640F751F37FD0CC0241B350B4E
:104EC000C901A5E0880F991FAA95E1F70E94443215
:104ED00080E20CC0CB0165E0880F991F6A95E1F76D
:104EE000BA01621B730B0E94443280E6861BF7FFF7
:104EF00003C08195089580E00895482F982F46FDBE
:104F00009095E92FEF739F7046FD9F5FE295EF70DC
:104F1000EE0FF0E0EB5EFD4F2181299F802D212DCA
:104F2000112482958F702295207F822B3081982FBB
:104F3000930F892F47FD819580580895BC018230D9
:104F4000910508F40895613E8EE1780748F49B01CD
:104F500095E0369527959A95E1F748E0420F01C014
:104F60004FEF91E0242F30E0290F311D3595279523
:104F7000229FF001239FF00DF00D11246E177F0783
:104F800018F44FEF420F04C02F3F39F091E0920F19
:104F9000491740F78FEF890F08958FEF089520E0AC
:104FA00030E0869F212D969F200D311D1124C901CF
:104FB0000895CF92DF92EF92FF920F931F93CF93BA
:104FC000DF93F62E472FE82FF0E0711106C0E45A68
:104FD000F94F8491782F682F73C0272F30E0E45A5F
:104FE000F94FE491FE2F0E2F10E056E0659FC001AF
:104FF0001124CFEFD0E0BE010E9430325BEA5603AD
:10500000C001579F900D11248F0D911D8F0D911D83
:10501000982F990F980F7E01E21AF30AE09ED001B3
:10502000E19EB00DF09EB00D11248B2F499FA00181
:105030001124452F55277E01E41AF50AE09EA001B0
:10504000E19E500DF09E500D11246E01C91AD10839
:10505000C29E7001C39EF00CD29EF00C11242F2D25
:105060003327C21BD30BC09F9001C19F300DD09F2F
:10507000300D1124932F6230710591F048F46115C1
:105080007105E1F061307105B9F49E2FE52F16C06E
:105090006430710569F040F06630710579F00CC03C
:1050A0009E2FEB2F832F0AC0EB2F8F2F952F06C03B
:1050B0009B2F8E2FE32F02C09B2F852F7E2F692FD2
:1050C000DF91CF911F910F91FF90EF90DF90CF90E4
:1050D000089580919B0283FF7EC089E396E00E9441
:1050E0000D04809195021F928F9384E396E09F9325
:1050F0008F930E94A60482E396E00E940D048091A3
:105100009602282F082E000C330B3F938F938FE2CB
:1051100096E09F938F930E94A6048DE296E00E94F2
:105120000D0480919702282F082E000C330B3F931B
:105130008F938AE296E09F938F930E94A60488E261
:1051400096E00E940D0480919802282F082E000CF2
:10515000330B3F938F9385E296E09F938F930E944A
:10516000A60483E296E00E940D0480919902282F04
:10517000082E000C330B3F938F9380E296E09F93B1
:105180008F930E94A6048DE196E00E940D04809109
:1051900091021F928F938AE196E09F938F930E94D2
:1051A000A60488E196E00E940D0480915F031F929F
:1051B0008F9385E196E09F938F930E94A60482E1EE
:1051C00096E00E940D048DB79EB74C960FB6F894EA
:1051D0009EBF0FBE8DBF0E94481C209196022111D8
:1051E00004C020919702222321F090939302809390
:1051F000920220919802211104C020919902222349
:1052000021F09093900280938F02E0918802F091B8
:105210008902309749F082E0809394020480F581FE
:10522000E02D84E992E009940895803F39F480915B
:10523000970287FF6AC01092970267C0813F29F4E6
:10524000809197021816BCF360C090919602823F3D
:1052500029F497FF5AC01092960257C0833F19F461
:105260001916CCF352C090919802893F31F4191667
:105270000CF04BC01092980248C08A3F19F497FF77
:1052800044C0F8CF8B3F39F48091990287FF3DC02D
:10529000109299023AC08C3F29F480919902181615
:1052A000BCF333C0843F21F4809195028E7F17C0F8
:1052B000853F21F4809195028D7F11C0863F21F4B6
:1052C000809195028B7F0BC0873F21F480919502DE
:1052D000877F05C0883F31F4809195028F7E80934F
:1052E000950213C08D3F21F480915F038E7F0BC028
:1052F0008E3F21F480915F038D7F05C08F3F29F49D
:1053000080915F038B7F80935F0380919602811170
:1053100006C080919702811102C010929102809183
:105320009802811106C080919902811102C01092E9
:105330008E02089580915F0380FD16C081FD16C026
:1053400082FD18C080918E02882391F0883290F4FB
:1053500028E0829FC001112468E270E00E9444327C
:10536000862F672B29F007C082E0089584E0089516
:1053700081E0089588E0089580915F0380FD14C066
:1053800081FD14C082FD16C080919102882381F0B6
:10539000843180F422E3829FC001112464E170E033
:1053A0000E944432862F08958CE0089589E1089583
:1053B00085E0089582E30895803F21F40E94BC298E
:1053C000819504C0813F29F40E94BC2980939702F3
:1053D0000895823F21F40E94BC29819504C0833F37
:1053E00029F40E94BC29809396020895893F19F4FC
:1053F0000E949A2905C08A3F31F40E949A2981951A
:105400008093980208958B3F21F40E949A298195F8
:1054100004C08C3F29F40E949A2980939902089530
:10542000843F21F480919502816017C0853F21F46B
:1054300080919502826011C0863F21F4809195028F
:1054400084600BC0873F21F480919502886005C07D
:10545000883F31F480919502806180939502089590
:105460008D3F21F480915F0381600BC08E3F21F45A
:1054700080915F03826005C08F3F29F480915F03B4
:10548000846080935F030895F894E82FE295EF70AD
:10549000F0E031A1282F2F7081E090E001C0880F4B
:1054A0002A95EAF7982F9095932391A392A1892B9F
:1054B00082A3789408959F92AF92BF92CF92DF9289
:1054C000EF92FF920F931F93CF93DF9302E211E0CD
:1054D000C2E5D2E08AE5E82E82E0F82E912CCC24B9
:1054E000C394D12CB801D8018C91F894E82FE2959F
:1054F000EF70F0E021A18F70A60102C0440F551F8C
:105500008A95E2F7CA01922F982B91A392A18095D8
:10551000892382A3789400C0E6E2F1E020E030E045
:10552000A12CB12C4191842F82958F7090E0DC01E9
:1055300090968C9190E04F7002C0959587954A9512
:10554000E2F780FD08C0C601022E02C0880F991F35
:105550000A94E2F702C080E090E0A82AB92A2F5FFF
:105560003F4F2C303105F1F60F5F1F4FFB0180815B
:105570000E94442AF0EAFA95F1F788819981A816E9
:10558000B90621F0B982A88281E001C080E0982AA2
:105590002296EC16FD0609F0A5CF992049F081E08E
:1055A00080930F040E94481C90930E0480930D0476
:1055B00080910F04882351F180910D0490910E0485
:1055C0000E942D1C069710F1809152029091530277
:1055D0009093A7028093A602809154029091550265
:1055E0009093A9028093A80280915602909157024D
:1055F0009093AB028093AA02809158029091590235
:105600009093AD028093AC0210920F04892DDF912C
:10561000CF911F910F91FF90EF90DF90CF90BF90AF
:10562000AF909F900895CF93DF930E94441AEC01AE
:105630008238910559F1A0F48133910509F473C0C2
:1056400040F48932910509F467C08A9709F472C061
:1056500084C08533910509F458C0C997B9F07DC05D
:10566000833E910571F138F4803E9105B1F0823EA0
:10567000910511F172C0863E9105B9F1873E910501
:10568000C9F1843E910509F068C024C080915002A0
:1056900080FD5DC081FD5BC060C08091500280FDD7
:1056A00050C08091510280FF49C18091500284FD19
:1056B00043C1C3EED0E042C18091500282FF3EC19F
:1056C000F4CF8091500282FD3FC08091510280FD55
:1056D0003EC0EBCF8091510281FF30C180915002DA
:1056E00084FD2AC1C7EED0E029C18091500283FF1A
:1056F00025C1F4CF8091500283FD2CC080915102CE
:1057000081FFECCFC4EED0E019C18091500285FF3B
:1057100015C1C9E2D0E012C18091500285FF0EC1CF
:10572000C5E3D0E00BC18091500286FF07C1CAE2F9
:10573000D0E004C18091500286FF00C1C1E3D0E0F7
:10574000FDC0C9E3D0E0FAC0C2EED0E0F7C0C0EEC1
:10575000D0E0F4C0C6EED0E0F1C0C11581E5D807B5
:1057600008F066C0C11520E5D207E0F0CE0174E074
:10577000969587957A95E1F783709C2F937021E039
:1057800030E002C0220F331F9A95E2F73C68382BB5
:10579000CF70C695C69540E2C49FE0011124C22B8C
:1057A000D32BCCC0C83ED10560F5C03ED10508F072
:1057B000C5C0C83AD105B0F4C53AD10540F0C55AC4
:1057C000D0E0C35EDD4FC881D0E0D064B7C0C13047
:1057D000D10509F4B3C008F4AFC0C430D10508F452
:1057E000ABC0ACC0CF3BD10508F0A6C0C85AD0E0D2
:1057F000CC0FDD1FC05EDD4F0990D881C02DD46471
:105800009DC0C11540E2D40758F4C11581E0D80706
:1058100008F094C0C03FD10508F48EC0D0658EC09A
:10582000C11520E4D20708F487C0DF70D06A86C0B3
:10583000C11545E5D40708F042C0C11584E5D80775
:1058400028F0DC2FCC27C46FD06A78C0C11523E5BF
:10585000D207B0F0CE018370992721E030E002C07A
:10586000220F331F8A95E2F78C2F8695869540E2AA
:10587000849FC0011124E901C82BD92BDA685EC0CE
:10588000C11542E5D40728F4DC2FCC27C16FD06ABC
:1058900055C0CE018370992721E030E002C0220F6D
:1058A000331F8A95E2F78C2F8695869540E2849F78
:1058B000C0011124E901C82BD92BDC683FC0C115F8
:1058C00089E5D807B8F4C11528E5D20728F0DC2F00
:1058D000CC27C06FD06A32C0C11546E5D40760F549
:1058E0008C2F0E9407278F71C82FD0E0DC2FCC2788
:1058F000D06224C0C1158AE5D80780F48C2F8F7040
:105900000E94072794E0D695C7959A95E1F7CF7046
:10591000D0E0DC2FCC27D069C82B10C0CE01905628
:105920008115904248F48D2F8F710E940727DD2743
:10593000D0628F71D82B02C0C0E0D0E0CE01DF91E1
:10594000CF9108958295982F937344E0949F90018E
:1059500011248C7C86958695282B822F8575880F3F
:105960002A7A2695822B0895AF92BF92CF92DF922A
:10597000EF92FF920F931F93CF93DF93EC018AE096
:10598000A82E2881222309F497C0213009F041C0B4
:105990008981813039F48E010E5F1F4F8A810E9408
:1059A000EC3008C0823041F48E010E5F1F4F8A81B7
:1059B0000E948D30E8017EC0833039F48E010E5F85
:1059C0001F4F8A810E944E30F5CF843011F021960E
:1059D00071C02A81229680E090E030E020533109A6
:1059E0002A30310558F4A89EA001A99E500D11241B
:1059F000C901840F951F21962881EFCF009709F4E4
:105A000059C0EFE9FFE03197F1F700C000000197BE
:105A1000F5CFE22FF0E0EE56FA4FB490822F869544
:105A20008695869590E0FC01EE57FA4FE49027703A
:105A3000F12C022E02C0F594E7940A94E2F7F1E00B
:105A4000EF22FF24FC01EE58FA4FC490D12C022E15
:105A500002C0D594C7940A94E2F731E0C322DD2452
:105A6000FC01EE59FA4F049110E002C0159507951C
:105A70002A95E2F701701127E114F10419F081EE83
:105A80000E948D30C114D10419F086EE0E948D3031
:105A90008B2D0E94EC30CD2819F086EE0E944E30FE
:105AA000EF2819F081EE0E944E30012B19F08CE2A4
:105AB0000E94EC30219665CFDF91CF911F910F911D
:105AC000FF90EF90DF90CF90BF90AF9008951F921E
:105AD0000F920FB60F9211242F933F934F935F9322
