:100000000C9492030C94D9030C94D9030C94D90347
:100010000C94D9030C94D9030C94D9030C94D903F0
:100020000C94D9030C94D9030C9495330C944A3254
:100030000C94F72A0C94D9030C94D9030C94D9038B
:100040000C94D9030C94D9030C94D9030C94D903C0
:100050000C94D9030C94AA2A0C94D9030C94D903B8
:100060000C94D9030C94D9030C94D9030C94D903A0
:100070000C94D9030C94D9030C94D9030C94D90390
:100080000C94D9030C94D9030C94D9030C94D90380
:100090000C94D9030C94D9030C94D9030C94D90370
:1000A0000C94D9030C94D9030C94D9031B0B370B74
:1000B0003E0B3A0C3A0C760B820B910B3A0C990BD7
:1000C000C00BD10BE70BEA0B0A0D6F07270D660D6E
:1000D000690D6E0DD40D230E680E0F0F120F170F42
:1000E000E71EE71E1F1F1F1FB01FCC1FA321A32148
:1000F000D91FB620C520C5204C224C225E225E228C
:1001000055225E225E225E224C224C225A225E2220
:100110005E225A2204282B28DE292B28DE29772864
:100120009A28DE299B29AB29010001006602000004
:1001300002000200620200000300010067020000EA
:10014000040002004C02E02D0500010068020000DE
:10015000060002004E0200000700020064020000D8
:100160000800010069020000090002005002BB2DD6
:100170000A0002005202BB2D0B0002005402BB2DEC
:100180000C0002005602BB2D0D0002005802BB2DD0
:100190000E0002005A02BB2D0F0002005C02BB2DB4
:1001A000100002005E02BB2D110002006002BB2D98
:1001B000120002006A020000130002006C0200003C
:1001C000FD377A585A000004E6D6B44602002101F1
:1001D00016000000742FE5A3E001D000ED5D003DA6
:1001E0008889C65436C3174FE4DCC05AD42F62FC4A
:1001F0005A148D41007D85F1FC7CCF5F40BFF786AE
:10020000F93255799F2B270C3C2459206F2F0A8BEC
:1002100080F0B6BB8C0CD4F257F0F70CE13ECEADBB
:100220007AEF1DEDFF243D02DD1678DF8878FE10A1
:100230005C722001D1CB06709836FB7A5DA8D3EBB7
:100240002DA5662C7E52839B0CCC8784DC0388EB27
:100250007834E9A96DCCC45A9C1621E7A3E231F4A5
:10026000B3A5B13C92201705099CF36988AA75B023
:10027000DF8ECD9A4192530ABCB4137EA69358F0F8
:1002800089F4AD7A0AF297197E8BD629E9773B7704
:100290006444C39B13C9F2D854557DD298E5A7D9BD
:1002A000A3AAD69A55A652316AD2F9B5F7A2879376
:1002B00057E96F35BFE93BF3E97BDA533D4FF21263
:1002C0001658BA2EF7E1CAD22E3BC000000000003B
:1002D000B29F7F67D30ED3CA00018902D103000009
:1002E00008A2841CB1C467FB020000000004595A34
:1002F0000000000002000100030002000E000300E5
:100300001000040014000500160006001800070085
:100310001D0008001F00090020000A0028000B0033
:1003200000000000000000000000000000000000CD
:1003300000000000000000000000000000000000BD
:10034000000000007E0F00D4FFFFFFC70000007810
:1003500000000000000000002A2B28000000000020
:100360000000000000000000000000290000000064
:100370002C1E3420212224342627252E362D3738D2
:10038000271E1F202122232425263333362E3738DB
:100390001F0405060708090A0B0C0D0E0F10111299
:1003A000131415161718191A1B1C1D2F3130232D65
:1003B000350405060708090A0B0C0D0E0F10111263
:1003C000131415161718191A1B1C1D2F3130354C14
:1003D0000001010101010101010102020202020208
:1003E00002020203030303030303030404040404DB
:1003F00004040505050505060606060607070707A2
:100400000708080808090909090A0A0A0B0B0B0C56
:100410000C0C0D0D0D0E0E0E0F0F0F1010111111F3
:100420001212131314141515161617171818191974
:100430001A1A1B1B1C1D1D1E1E1F202021222223D9
:100440002424252626272829292A2B2C2D2D2E2F1A
:1004500030313232333435363738393A3B3C3D3E31
:100460003F404142434445464748494A4C4D4E4F20
:1004700050515354555658595A5B5D5E5F616264E2
:10048000656668696B6C6D6F7072737577787A7B6F
:100490007D7E8082838587888A8C8E8F91939596C6
:1004A000989A9C9EA0A2A3A5A7A9ABADAFB1B3B5E6
:1004B000B7BABCBEC0C2C4C6C9CBCDCFD1D4D6D8C2
:1004C000DBDDDFE2E4E7E9EBEEF0F3F5F8FAFDFF60
:1004D00005010902A10185020901A100050919010F
:1004E0002905150025019505750181029501750302
:1004F00081010501093009311581257F95027508B3
:10050000810609381581257F950175088106050C3E
:100510000A38021581257F950175088106C0C0053E
:10052000010980A101850319012AB700150126B729
:1005300000950175108100C0050C0901A101850419
:1005400019012AA002150126A0029501751081004B
:10055000C00660FF0961A1010962150026FF009530
:1005600020750881020963150026FF009520750893
:100570009102C005010906A101050719E029E71547
:100580000025019508750181029501750881010515
:1005900007190029FF150026FF0095067508810040
:1005A0000508190129059505750191029501750345
:1005B0009101C009025B00030100A0FA09040000D8
:1005C000010301010009211101000122400007057A
:1005D000810308000A090401000203000000092148
:1005E00011010001222200070582032000010705F6
:1005F0000303200001090402000103000000092197
:10060000110100012281000705840320000A120164
:10061000100100000008EDFE61600100010203010D
:100620001C037600690061006C003A006600360029
:1006300034006300320062003300630000001C03DA
:1006400043004D004D004B00200042004D0034009F
:100650003300200052004700420000000203000067
:1006600004030904290014001A00080015001700EB
:100670001C0018000C00120013002A002B000400BC
:100680001600070009000A000B000D000E000F0005
:1006900000002800E1001D001B00060019000500F5
:1006A000110010003600520000003700E000E300A7
:1006B000E2002C0000002C0000000151500051000D
:1006C00000004F00005C010001000100010001007A
:1006D0000100010001000100010001000100BF5CF8
:1006E000BD5CBE5CC05C01000100010001000100B6
:1006F000000001000100C25CC35CC55CC65CC75C55
:10070000C85CC95CCA5C0100000001000100010076
:1007100001000100000001000000010001000100D3
:100720000000010011241FBECFEFDAE0DEBFCDBF15
:1007300004B603FE27C08091260590912705A0915D
:100740002805B09129058730904BA740B04BD1F4D4
:10075000109226051092270510922805109229055F
:1007600014BE84B7877F84BF0FB6F894A895809194
:100770006000886180936000109260000FBEE0E02E
:10078000F8E3099512E0A0E0B1E0E2E8FCE602C07F
:1007900005900D92AA34B107D9F725E0AAE4B2E09A
:1007A00001C01D92A632B207E1F70E94DB030C9450
:1007B0003F360C940000CF93DF93CDB7DEB7EE97B2
:1007C0000FB6F894DEBF0FBECDBF84B7877F84BF5E
:1007D0000FB6F894A89580916000886180936000BE
:1007E000109260000FBE90E080E80FB6F8948093FE
:1007F0006100909361000FBE85B7806885BF85B7A3
:10080000806885BF8FEF99E290934B0280934A02F4
:100810000E9418310E946C2F0E948E320E94343345
:100820008091E20084608093E2007894809170046B
:100830008823A1F01091E9001F709091EC00892F9E
:10084000817090FD80E8182B1092E9008091E800FB
:1008500083FD0E941E271F701093E90082E084BD73
:1008600093E095BD9AEF97BD80936E0086EC0E9451
:10087000511686E30E94511684E30E94511685E3C7
:100880000E94511602E311E04EE3E42E41E0F42E03
:10089000D8018D918D010E945116E016F106C1F725
:1008A00010927102109270021092F8021092F702E8
:1008B00010927302109272021092FA021092F902D0
:1008C00010927502109274021092FC021092FB02B8
:1008D00010927702109276021092FE021092FD02A0
:1008E00080E090E00E9445358A3E9E4F11F00E94C4
:1008F0004B2B82E090E00E943D358093EC020E94F9
:100900003A2B90936F0280936E020E946816EFEF6D
:10091000F6E701E0E150F0400040E1F700C00000E0
:100920000E9468168091F70280FF17C06FEF83E284
:1009300090E00E945B356FEF84E290E00E945B35AF
:100940006FEF85E290E00E945B356FEF7FEF80E014
:1009500090E00E9479350E94862A83E090E00E9410
:100960003D35682F70E080E090E00E94782D109275
:100970007A0483EA94E0E3E9F4E02FEF3FEF219378
:1009800031938E179F07D9F710927902E2E9F2E0CE
:1009900082EA92E02FEF3FEF219331938E179F076A
:1009A000D9F780E090E00E9445358A3E9E4F21F0C5
:1009B0000E944B2B0E94E21246E050E06CE170E096
:1009C00087EA94E00E942D358091A7048C7F11F472
:1009D0000E94E21283E290E00E943D35883681F465
:1009E00084E290E00E943D358D3651F485E290E03E
:1009F0000E943D3591E0893209F090E0892F01C0D5
:100A000080E080FD02C00C94AF0C8DE091E09093EB
:100A1000DA028093D90280917004853009F047C0D2
:100A200000E112E180917004853009F03CC08091B2
:100A30007004843021F11092780268E170E080E463
:100A40000FB6F894A895609360000FBE8093600085
:100A500083B7817F846083BF83B7816083BF7894CD
:100A6000889583B78E7F83BF0FB6F894A895809141
:100A70006000886180936000109260000FBE8091DA
:100A80006F04882309F4CECF0E946816E7EFF2E0E6
:100A900081919191892B09F015C7AFEFB2E0AE17A4
:100AA000BF07B1F7BFCF0E9484220E94202E0E9470
:100AB000681681110E94DF2AE7EFF2E0ADEEB2E0A6
:100AC000C12CD12C7C2CA190B1908D919D918A2527
:100AD0009B25009709F455C110E0EE24E394F12C16
:100AE0009C012E213F21232B09F445C11BA77CA685
:100AF000AE20BF2081E0A114B10409F480E08DA7ED
:100B00000E94EB2A8160782F9FA78EA74BA55CA53A
:100B10006DA58FA50E946E31F601EE0FFF1FE35108
:100B2000FD4F80819181E826F926F182E082AB2891
:100B300089F08CE08C9DF0018D9DF00D1124EA5719
:100B4000FE4FE10FF11D80818F3F21F0282E992467
:100B5000939401C0912C80907902E92CF12CC7016B
:100B6000880D911D0997A4F188E090E05C01AE1812
:100B7000BF08B7016F5F7F4F67587D4FA5018AE7B8
:100B800092E00E942F36B701675F7F4F67587D4F15
:100B9000A50182E892E00E942F36A501440F551F5F
:100BA000B701660F771F675E7F4F67587D4F82E9F9
:100BB00092E00E942F36B7016F5E7F4F67587D4FDE
:100BC000A5018AE892E00E942F368A9480927902E9
:100BD0008091790290E0A22DB0E09D01220F331F99
:100BE0002A543E4FAA0FBB1FBD0169547E4F41E0FE
:100BF000480F9915A8F490E0FC01E758FD4FD90182
:100C00005C915183DB015C915187218A880F991F88
:100C1000FC01E758FD4F128E118E91E0842FE7CF33
:100C2000809379028091A7048C7F803209F0C1C043
:100C3000AFEFA70D01E0070D5FEF510F41E0410F4E
:100C4000511780F48CE08C9DF0018D9DF00D1124E6
:100C5000E755FD4FE50FF11D208130E1230F08F42A
:100C60002FEF2083212F30E07CE07C9DC0017D9D13
:100C7000900D112487559D4FFC01E20FF31F7081E9
:100C8000B0E26B2F760F08F47FEF70834C3051F099
:100C9000FC01E40FF11D708180E1682F760F08F4EC
:100CA0007FEF7083043009F432C0E02EF12C51172D
:100CB00090F48CE08E9DF0018F9DF00D1124E7558E
:100CC000FD4FE50FF11D80819DE0782F092F700FFA
:100CD00008F47FEF7083ECE0EE9DC001EF9D900D76
:100CE000112487559D4FFC01E20FF31F608170E1D5
:100CF000670F08F46FEF60834C3049F0FC01E40F9C
:100D0000F11D60817DE0670F08F46FEF6083A71528
:100D100008F04FC0B0E0511780F48CE08A9FF001DA
:100D20008B9FF00D1124E755FD4FE50FF11D50810C
:100D30006DE0560F08F45FEF50838CE08A9FF0015E
:100D40008B9FF00D1124CF0187559D4FFC01E20FC1
:100D5000F31F208130E1230F08F42FEF20834C3064
:100D600041F1FC01E40FF11D20813DE0230F08F467
:100D70002FEF20831EC01F5FEE0CFF1C1C3009F0FC
:100D8000AFCE2FEFC21AD20A34E0C316D10409F055
:100D900099CE8FEF88AB89AB1AAA0E94EB2A8160AB
:100DA000782F9CAB8BAB48A959A96AA98CA90E9442
:100DB0006E318091A2029091A302A091A402B09101
:100DC000A5022FB7F894C090DB02D090DC02E0902F
:100DD000DD02F090DE022FBFC81AD90AEA0AFB0A28
:100DE0000E94DF2A6093A2027093A3028093A40260
:100DF0009093A502A0917902E9E7F2E02A2F30E072
:100E000088248A94982CA12CB12C8C189D08AE08AB
:100E1000BF08A31799F0418D528D2A01612C712CC6
:100E200084149504A604B70410F4215004C04C0D9A
:100E30005D1D528F418F3F5F3296EBCF2093790239
:100E40003091A704232F237021F0332E369436944B
:100E500001C0312C20910A012130E9F038F0223014
:100E600009F470C0233009F476C092C010921A01C0
:100E70006093A3047093A4048093A5049093A604A4
:100E800089E2E9E7F2E0AAE7B4E001900D928A95E1
:100E9000E1F781E054C09091050139120DC0832F14
:100EA000837090E04091040150E021E084179507A1
:100EB00009F420E0822F01C081E0817080931C0141
:100EC0008091AC0490911B01981709F462C580933E
:100ED0001B0140E060E080E00E9440125AC5809112
:100EE0001A01880F182F110F110F180F0AE0010FA8
:100EF000023308F001E36091A8047091A904809185
:100F0000AA040E94DC13F62EE72ED82E101708F440
:100F10008CC581E0013310F00C94B30F90911A014D
:100F20009F5F90931A0181113FC582E080930A016F
:100F300080911C01811138C5311039C583E080933F
:100F40000A0126C030920501832F8370809304012B
:100F50000E941412F3CF4091A3045091A404609115
:100F6000A5047091A6042FB7F8948091DB029091AC
:100F7000DC02A091DD02B091DE022FBF841B950B35
:100F8000A60BB70B4097A105B10510F010920A010E
:100F900086E0E5EEF2E08E010F5F1F4FD801019071
:100FA0000D928A95E1F7C090E702D090E802E090B8
:100FB000E902F090EA021092E7021092E802109221
:100FC000E9021092EA02C11003C0DD2009F45DC0FD
:100FD0008091E3029091E4020E94D02AAC019091AA
:100FE000E202992339F02091090130E024173507F6
:100FF00058F04BC0209108016AE0269F900111240F
:101000002417350718F041C09F3F19F09F5F909358
:10101000E202CC2061F00E949A151C1414F491E0B5
:1010200001C09FEF899F802D11248093E702DD206E
:1010300061F00E949A151D1414F491E001C09FEF15
:10104000899F802D11248093E8023091E702332399
:10105000E1F02091E8022223C1F075EB3703C001D3
:101060001124992319F09093E70203C081E0809343
:10107000E70235EB2303C0011124992319F0909363
:10108000E80203C081E08093E802E11003C0FF2082
:1010900009F45DC08091E0029091E1020E94D02AA3
:1010A000AC019091DF02992339F02091070130E0E3
:1010B0002417350758F04BC0209106016AE0269F9F
:1010C000900111242417350718F041C09F3F19F0F3
:1010D0009F5F9093DF02EE2061F00E9461151E1465
:1010E00014F491E001C09FEF899F802D112480931B
:1010F000E902FF2061F00E9461151F1414F491E0D1
:1011000001C09FEF899F802D11248093EA023091C6
:10111000E9023323E1F02091EA022223C1F075EBCA
:101120003703C0011124992319F09093E90203C0F9
:1011300081E08093E90235EB2303C0011124992358
:1011400019F09093EA0203C081E08093EA02809153
:10115000E70281110BC08091E802811107C08091E4
:10116000E902811103C08091EA0281110E94B21448
:10117000CB82DC82ED82FE8286E0F801A5EEB2E051
:1011800001900D928A95E1F70E94202E9091EB023A
:10119000891721F00E94202E8093EB028091700429
:1011A000843009F038CC83E08093E9008091E80036
:1011B00082FF31CC8091E80085FF21C00E94AD32D2
:1011C00081111BC050E2E52EF12C680109C080910D
:1011D000F100D6018D936D01B1E0EB1AF10869F0D1
:1011E0008091E80085FDF3CF8091E8008B778093B4
:1011F000E8000E94AD32882399F391E001C090E0AD
:101200008091E8008B778093E800992309F403CC60
:10121000E090FF02F09000038981E114F10461F095
:101220008E3F09F027C38A81833008F4F8C18550C6
:10123000833008F01FC3F3C1893009F42AC1D0F408
:10124000843009F476C050F48230A1F108F062C015
:10125000813009F00DC31A8289E069C2863009F431
:101260007AC008F46DC0873009F478C0883009F47A
:10127000B3C0FEC2803109F46DC180F48D3009F431
:101280000BC128F48C3009F0F3C280E167C18E30C5
:1012900009F406C18F3009F42EC1EAC2823109F483
:1012A0005FC108F45AC1833109F484C18E3F09F447
:1012B000B6C1DEC28A81823009F448C3833051F05E
:1012C000813009F0D5C20E94DF2A9B838C837D8305
:1012D0006E83D0C280910B0190910C01892B09F48F
:1012E000C9C28091F7029091F8029B838C83809110
:1012F000F9029091FA029D838E838091FB02909176
:10130000FC029F8388878091FD029091FE0299875D
:101310008A87B0C28A81823009F0AAC26B817C813F
:101320008D819E810E94283686E290E00E945B3586
:10133000A1C24C816B818A810E94CE309D830DC3F6
:101340002D813E813227232732274C816B818A8170
:101350000E9416308FC20E944C308CC28A81813428
:1013600009F088C24B815C818091A704982F93700B
:101370004115510539F4911110920A018C7F809327
:10138000A7041FC0911102C010920A018C7F8160D6
:101390008093A70420EF32E060E273E0F901329617
:1013A00085919491F901A591B4914A175B0731F0A9
:1013B0002C5F3F4F6217730789F780E060E00E945F
:1013C000B6128D818093AB048E8120E048856F81B9
:1013D00090E00E9460124EC28A81813461F08234B2
:1013E00009F437C0803409F045C281E08B831C8248
:1013F0008FEF8D833FC28091A704982F9370A9F03F
:101400008695869590E020EF32E0F901329665915D
:101410007491F901459154918617970749F02C5F13
:101420003F4FE3E020323E0781F790E080E002C0CA
:10143000942F852F9B838C838091AB048D83809127
:10144000A8048E838091A9048F838091AA04888741
:1014500011C2EB80FC804EE150E06FEF70E0CE01F6
:1014600003960E94383680EF92E0DE0113962EE15B
:10147000FC0145915491E416F50628F4223018F049
:101480004D935D9322500496F3E080329F0781F7DD
:10149000F1C10E944412EEC181E08A8387E847C10E
:1014A000EA80FB80FE24EF24FE24AC80B12C2DE1E9
:1014B000A216B10408F0DEC16801C70187589D4F2C
:1014C0009601201B310B2A153B0508F0D3C137E8E4
:1014D000E31631E0F30630F40E943D35D601149650
:1014E0008C9302C0F6011482FFEFEF1AFF0A2FEF70
:1014F000C21AD20AE2CF80910B0190910C01892B84
:1015000009F4B8C1EA80FB80FE24EF24FE24CC80DD
:10151000D12C3DE1C316D10408F0ACC15801C7017C
:1015200087589D4F9501201B310B2C153D0508F068
:10153000A1C147E8E41641E0F40628F4D501149669
:101540006C910E945B35BFEFEB1AFB0AEFEFAE1A0E
:10155000BE0AE5CF0E94F12F8DC185E08A838AC142
:10156000EA80FB80FE24EF24FE24AC80B12CFDE158
:10157000AF16B10408F07EC16801C70187969601D5
:10158000201B310B2A153B0508F074C120EEE21632
:1015900021E0F20630F40E943D35D60114968C937A
:1015A00002C0F6011482FFEFEF1AFF0A2FEFC21AF2
:1015B000D20AE3CFEA80FB80FE24EF24FE24CC8015
:1015C000D12C3DE1C316D10408F054C140EEE4161D
:1015D00041E0F40608F04EC180EE91E08E199F09BB
:1015E0008C159D0508F446C15801C70187969501E1
:1015F000201B310B2C153D0508F03CC160EEE616B2
:1016000061E0F60628F4D50114966C910E945B35D2
:10161000BFEFEB1AFB0AEFEFAE1ABE0AE6CFEA8184
:101620008E2F90E08E30910508F024C1FC01EA5A1B
:10163000FF4F0C94223688E0E3E2F1E0DE01919660
:1016400001900D928A95E1F780E2D8011D928A956A
:10165000E9F784E0898388E0FE01B196DE01159602
:1016600001900D928A95E1F781E08D8703C180E3B7
:10167000898381E08A831B821C82FCC08C8190E07C
:10168000982F88272B81820F911D092E000CAA0B01
:10169000BB0B45E0880F991FAA1FBB1F4A95D1F7C6
:1016A000AC01BD01405E5F4F6F4F7F4F4817590738
:1016B0006A077B0708F4DEC08033E1E09E07A105DE
:1016C000B10508F0D7C04133F1E05F07610571054E
:1016D00020F040E351E060E070E0481B590BBC0192
:1016E00060547E4FC8010E942435C4C040E250E0DF
:1016F0006FEF70E0C8010E94383680910B0189833A
:10170000EA82B8C081E090E0909300038093FF02EA
:1017100082E390E09093F6028093F5020E94EB2A18
:10172000A9C080910B018983EA828091F5028B83A5
:10173000A1C0EB80FC8040E250E06FEF70E0C80198
:101740000E94383628E231E080E090E0AC014E5F44
:101750005F4F4132510508F08DC0F90165917491D8
:10176000E616F70630F4F801E80FF91F718360837D
:10177000CA01285F3F4F41E0203C340739F77AC067
:101780002B813C8188E291E0FC0145915491421704
:10179000530709F4ADC0089661E0803C9607A1F7B5
:1017A00067C08B819C8128E2E22E21E0F22EF701B6
:1017B000259134912817390709F451C078E0E70ED4
:1017C000F11CA0ECEA16A1E0FA0689F751C00E94CC
:1017D000B02F50C08B81813059F018F0823001F168
:1017E00049C080E2D8011D928A95E9F788E041C09E
:1017F0008C819AE0D92E7E01B1E2EB0EF11CF7014B
:101800002D2D11922A95E9F7B7010E9401308983A5
:10181000F701DE01129601900D92DA94E1F72AC0E9
:101820006C818AE0FE013596DE01919601900D9261
:101830008A95E1F7683070F43AE0639FB0011124B3
:10184000675D7D4F4AE050E0CE0181960E947F3572
:1018500080E001C08FEF89830E9418310BC0C7015F
:101860000296FC01259134912D31310508F456C0C2
:101870008FEF898380917004843009F0CCC8809107
:10188000E9008F702091EC00922F917020FD90E87C
:10189000F92EF82A82E08093E9008091E80080FF29
:1018A0000CC040E050E060E270E0C8010E94F22607
:1018B0008091E8008E778093E8008F2D8F70809361
:1018C000E900A9C809BD19BD09B400FEFDCF80918A
:1018D000D8008F7D8093D8008091E0008260809353
:1018E000E0008091E00081FDFCCF0E9484229AC834
:1018F0009C012E5F3F4FF9014591549140325105B3
:1019000008F0B6CFF90145915491FC0134966591E8
:101910007491CE0102960E942F3616C0FC014591AB
:101920005491F701349685919491BE016B5F7F4F7E
:101930000E942F360E94932FF7013696859194913D
:10194000009711F0FC01099580E093CF86E290E0CA
:101950000E943D351B821C821D828E838BCF60E0EE
:1019600086E290E00E945B350E944C300E94F12F8D
:1019700068E683E290E00E945B356DE684E290E0E9
:101980000E945B3569E285E290E00E945B350C9431
:101990000505832D90E08C309105B8F180911A01F6
:1019A0008F5F80931A01C1CA332009F4F1CA1091E4
:1019B0001A01E091D902F091DA02309729F00190F2
:1019C000F081E02D099501C080E081FFE1CA110F8F
:1019D0001250812F880F880F180F0AE0010F802FF7
:1019E000023308F081E3811708F4D2CA812F90E016
:1019F000FC01E85EFD4F208123FF05C020E040E0B0
:101A00006FEF0E9442121F5FEACFFC01EC59FF4FBB
:101A10000C94223680911C01882309F4A4C240E072
:101A200060E080E00E9440129EC2E12FF0E0DF0102
:101A3000A85EBD4F8C9190911B01982331F02D2D04
:101A40004F2D6E2DCF010E9442121F5F5FCA109171
:101A50001A01110F812F880F880F180F0AE0010F4C
:101A6000023308F001E3E090A904F090AA04D090BA
:101A7000A8046D2D7E2D8F2D0E94DC13C62EB72E4F
:101A8000A82E6091AB046D0D7E2D8F2D0E94DC136E
:101A9000F62EE72ED82E101708F03BCAE12FF0E003
:101AA000DF01A85EBD4F8C9190911B01982361F0DE
:101AB00080FF04C02D2D4F2D6E2D03C02A2D4C2DDF
:101AC0006B2DCF010E9442121F5FE5CF86EF9FE092
:101AD00002C08BED9FE00E942D2620CA10911A01B2
:101AE000110F812F880F880F180F0AE0F02EF10ECA
:101AF00041E34F1510F4B1E3FB2E6091AB04669502
:101B00008091A3049091A4040E94D213782E1F15F3
:101B100008F044C0812E912CF401E85EFD4F9081C5
:101B200080911B018923C1F1F401EE0FFF1FEA54DC
:101B3000FE4FC080D12C60E7C61AD108F401EE0F29
:101B4000FF1FEA57FE4FA1A8B12C70E2A71AB108F7
:101B5000CC9C9001CD9C300D300D1124AA9CC0016D
:101B6000AB9C900D900D1124820F931F0E94A11326
:101B7000082F6091A8047091A9048091AA04E72C11
:101B80009501A6010E943F130E94DC13462F282FC7
:101B9000672FC4010E9442121F5FB9CF81E090E31A
:101BA0009F1508F0BBC9DFC110911A01110F812FD9
:101BB000880F880F180F6AE0F62EF10EA1E3AF151B
:101BC00010F451E3F52E6091AB0466956695809113
:101BD000A3049091A4040E94D213B82E80E48B0D2C
:101BE0000E94801330E8A32EA80E8B2D0E94801334
:101BF00040E8942E980E1F1500F5C12ED12CF60149
:101C0000E85EFD4F908180911B018923A1F06091D6
:101C1000A8047091A9048091AA04EB2C012F292D0E
:101C20004A2D0E940D130E94DC13462F282F672F88
:101C3000C6010E9442121F5FDECF81E0B0E3BF15F4
:101C400008F06CC990C180911C0181111EC0609187
:101C5000AB0420E1620F08F46FEF8091A304909130
:101C6000A4040E94D2136AE070E00E94FA35892B26
:101C700009F079C10E94143561E370E00E940E36CC
:101C800060911B010E946C146EC100911A01000F3B
:101C9000802F880F880F080F2AE0D22ED00EE1E3A4
:101CA000ED1510F491E3D92E10E0ED2CF12C0E156A
:101CB0001F0544F460911B01C8010E946C140F5F62
:101CC0001F4FF5CF81E0F0E3FD1508F027C94BC1A8
:101CD00000911A01000F802F880F880F080F8AE0EB
:101CE000E82EE00E20E32E1510F410E3E12E809193
:101CF0001C01882361F040E060E080E00E94401217
:101D000080E3E9EAF2E0DF011D928A95E9F780912C
:101D10001A01811115C08091A7029091A8020E941A
:101D2000D02A21E08931910508F420E02093A60211
:101D3000499730F00E94EB2A9093A8028093A70263
:101D400010E06E2C712CACE05A2EBAEA4B2E061520
:101D500017050CF05EC04801B3E08B22992468019E
:101D6000D594C794D594C794589CC001599C900DA4
:101D70001124FC01E755FD4FEC0DFD1DF0808A5745
:101D80009E4FFC01EC0DFD1D80818F3F59F1A82E67
:101D9000B12CF501E85EFD4F908180911B018923F4
:101DA00009F13F2D25E5321B08F430E07091A904BC
:101DB000242D4F2D240F08F42FEF4091AA0462E048
:101DC000269F200D11242E5F249F212D1124642D88
:101DD000631B822F0E94DC13462F282F672FC5011B
:101DE0000E9442128091A602882381F02F2D71E07B
:101DF000271B08F420E0589CC001599C900D112429
:101E000087559D4FFC01EC0DFD1D20830F5F1F4F7B
:101E10009ECF81E09FE29E1508F080C8A4C084EDAB
:101E20009FE002C08EEC9FE00E947C2677C8109154
:101E30001A01110F812F880F880F180FAAE0A10F28
:101E4000ADABA23310F0B1E3BDABE0917A04EAAFE1
:101E50004DA9141708F082C0A12EB12CF501E85E3F
:101E6000FD4F908180911B01892309F475C08090FA
:101E7000A8049090A9046AE7462E64E0562E23E950
:101E800034E039AF28AF1FAA1EAAC501880F991FD9
:101E9000BC016A547E4F7CAF6BAFC501880F991FA0
:101EA000DC01A954BE4FBEAFADAFEFEF4E1A5E0AD4
:101EB000FAAD0EA9F01709F43EC0EBADFCAD808180
:101EC00090E0D2012C916C01C21AD108EDADFEADAB
:101ED000808190E018962C913C01621A7108CC9C8C
:101EE0009001CD9C300D300D1124669CC001679C83
:101EF000900D900D1124820F931F0E94A113082FA3
:101F00006091AB0421E0620F08F46FEFA8ADB9ADAA
:101F10008D919D91B9AFA8AF0E94D2137C0193011E
:101F2000A601B4018FA90E94F5124B018FABBEA987
:101F3000BF5FBEABBACF2091AA048FA9382F329FC2
:101F4000312D1124832FB4010E94DC13462F282F3A
:101F5000672FC5010E9442121F5F7ACF81E0413393
:101F600010F40C948E0780E00C948E07E4E0F3E00C
:101F700093E0E739F90729F0818360834283339640
:101F8000F7CF0895FC01EE0FFF1F8E0F9F1FFC017E
:101F9000EC5FFC4F618340832283089522E8241B79
:101FA00008F420E0620F08954095282F429F412DAC
:101FB0001124842F0895A22F50E0FA01EE0FFF1F85
:101FC000EA57FE4F91A9905297FD9195440F551FE6
:101FD000FA01EA54FE4F3081232F30E02A1B3109E9
:101FE000290F311D97FD3A95620F0895E42FF0E017
:101FF000EE0FFF1FEA54FE4F6081621B089590911F
:102000006E0292FF0DC0282F2871283019F4877FA7
:10201000846006C0282F2471243011F48B7F8860DF
:1020200093FF0DC0282F2871283119F4877E846111
:1020300006C0282F2471243111F48B7E88612091F1
:102040006F0220FF0DC0382F3871383019F4877FA8
:10205000816006C0382F3171313011F48E7F886075
:1020600021FF0DC0282F2871283119F4877E816146
:1020700006C0282F2171213111F48E7E886194FDD4
:10208000877E08959C013A9521153F4138F5DC0182
:10209000AA27B270AC01442754709C0122273870E3
:1020A00094FF0FC090FF02C080E101C080E0AB2B25
:1020B00009F08062452B09F08064232B69F0806869
:1020C0000BC0892F8170AB2B09F08260452B09F082
:1020D0008460232B09F08860FB01099408950F9315
:1020E0001F93CF93DF9300D000D01F92CDB7DEB700
:1020F0008C0190931E0580931D05011580E2180741
:10210000E0F4802F0E948F22C801805E9109089719
:1021100018F00115110519F467E372E202C060E3DB
:1021200072E2C8010F900F900F900F900F90DF9107
:10213000CF911F910F910C9442108EEF89838A8367
:102140001B820E94EB2A8160782F9D838C834981BA
:102150005A816B818D810E946E310F900F900F908C
:102160000F900F90DF91CF911F910F9108950F93D2
:102170001F93CF93DF938C01EB016FE973E08C2FFA
:102180000E940130892B09F046C080916A0290912B
:102190006B020E94E92DDD27C956DC4F8881F801CA
:1021A00010821882833079F048F4813041F1823016
:1021B00091F58091A1039091A20309C0843051F060
:1021C0008530E9F028C08091A3039091A403009783
:1021D000B1F01BC08091A5039091A6030097A9F4CC
:1021E00020919F033091A0038091A1039091A203BD
:1021F0002115310541F0009741F4C90106C08091D5
:102200009F039091A003009731F0DF91CF911F9130
:102210000F910C946F10DF91CF911F910F91089542
:102220000F931F93CF93DF9300D000D01F92CDB7B1
:10223000DEB78C0190931E0580931D05011580E289
:102240001807E0F4C801805E9109089718F001159D
:10225000110519F466E272E202C06CE172E2C80193
:102260000E944210802F0F900F900F900F900F90B0
:10227000DF91CF911F910F910C94C7228EEF89832C
:102280008A8381E08B830E94EB2A8160782F9D8373
:102290008C8349815A816B818D810E946E310F90B0
:1022A0000F900F900F900F90DF91CF911F910F9192
:1022B0000895CF93DF93EC010E94101180916A0280
:1022C00090916B020E94E92DCE01DF91CF910C9489
:1022D0006F100F931F93CF93DF938C01EB016FE986
:1022E00073E08C2F0E940130892B09F06DC0DD272F
:1022F000F8018081813041F49185911115C092855A
:10230000992391F082E010C0823049F4F801818570
:10231000811107C08285811106C083E005C086E077
:1023200003C085E001C084E0C956DC4F8883833058
:10233000B1F028F4813071F0823031F045C0843042
:10234000A9F0853079F140C08091A1039091A2035A
:102350000097A1F580919F039091A00320C08091E8
:10236000A3039091A4030097E9F028C08091A503EE
:102370009091A603009711F580919F039091A0037F
:10238000009749F00E9459118091A1039091A203F6
:10239000009781F013C08091A1039091A203009750
:1023A00099F00CC080919F039091A003009761F079
:1023B0000E94591180919F039091A003DF91CF91CA
:1023C0001F910F910C941011DF91CF911F910F91DC
:1023D00008950F931F93CF93DF938C01862F6FE99E
:1023E00073E00E940130892BD1F4C0919F03D091FA
:1023F000A0032097A1F0F8018081833039F4CE0149
:102400000E945911CE010E94591102C0843038F047
:10241000CE01DF91CF911F910F910C945911DF9153
:10242000CF911F910F9108956A9A8EB18B7F9EB1C3
:1024300094602FB7F894E4E0F3E033E0E739F30772
:1024400089F0319148E09EB9000000C037FF8EB995
:10245000330F000000C000C000C08EB900C04A9514
:1024600091F7EBCF2FBF8FE594E00197F1F700C014
:1024700000000895882311F0FA0101C0FB010994BE
:102480000C94B60F0C94C20F46E050E06CE170E083
:1024900087EA94E00C944B35E7EAF4E0248130E1DC
:1024A000231B08F420E024830C944412E7EAF4E0B0
:1024B000248130E1230F08F42FEF24830C9444127D
:1024C0009091A704937049F08093A8046093A904A5
:1024D0004093AA0421110C9444120895E7EAF4E011
:1024E000438120E1421B08F440E0818121E06281C8
:1024F00090E00C946012E7EAF4E0438120E1420F9F
:1025000008F44FEF818121E0628190E00C94601229
:10251000E7EAF4E0628120E1621B08F460E0818177
:1025200021E0438190E00C946012E7EAF4E06281DC
:1025300020E1620F08F46FEF818121E0438190E098
:102540000C946012E7EAF4E0818190E021E043819D
:10255000628108970C946012E7EAF4E0818190E0D0
:1025600021E04381628108960C9460129091A70447
:10257000937091F0811102C0946007C08C3010F00C
:102580009C6203C0880F880F982B9093A704109229
:102590000A0161110C94441208958091A704869554
:1025A0008695815009F48BE061E00C94B61280911D
:1025B000A704869586958F5F8C3008F081E061E0F6
:1025C0000C94B612E7EAF4E08DE0808380912B0151
:1025D00090912C01A0912D0181839283A3838FE799
:1025E00084838FEF85830C944412EF92FF920F93B4
:1025F0009701201B31092F3F310519F010F02FEF03
:1026000030E0322F3095482F430F08F44FEF842FDE
:10261000620F0F91FF90EF9008950F931F93522F29
:1026200010E0F801EE0FFF1FEA57FE4FE1A9F0E0BE
:10263000B097EE0FFF1F9F015203D001539FB00DC3
:102640001124000F111FF801EA54FE4F008110E021
:1026500000571109000F111F40039001419F300DD9
:1026600011242A0F3B1F37FF02C021583F4F220F72
:10267000232F221F330B620F1F910F910895EF92AA
:102680000F93CF93DF93D72FC82F0E192115310544
:1026900021F457FF2BC080E82AC0F90137FF04C09E
:1026A000EE27FF27E21BF30BBA016E0F7F1F57FDCA
:1026B0000CC04E1B5F0BCA01E5E0880F991FEA951D
:1026C000E1F70E940E3680E20CC0CB0165E0880F76
:1026D000991F6A95E1F7BF01641B750B0E940E36C6
:1026E00080E6861B37FF03C0819501C080E0602F24
:1026F000681B7D2F8C2FDF91CF910F91EF90089564
:10270000482F982F46FD9095E92FEF739F7046FD57
:102710009F5FE295EF70EE0FF0E0E25CFE4F2181EB
:10272000299F802D212D112482958F702295207F45
:10273000822B3081982F930F892F47FD81958058E8
:102740000895BC018230910508F40895613E8EE140
:10275000780748F49B0195E0369527959A95E1F71F
:1027600048E0420F01C04FEF91E0242F30E0290FE5
:10277000311D35952795229FF001239FF00DF00D17
:1027800011246E177F0718F44FEF420F04C02F3F3C
:1027900039F091E0920F491740F78FEF890F0895B4
:1027A0008FEF089520E030E0869F212D969F200D29
:1027B000311D1124C9010895CF92DF92EF92FF924B
:1027C0000F931F93CF93DF93F62E472FE82FF0E060
:1027D000711106C0E053FC4F8491782F682F73C0AD
:1027E000272F30E0E053FC4FE491FE2F0E2F10E036
:1027F00056E0659FC0011124CFEFD0E0BE010E94DA
:10280000FA355BEA5603C001579F900D11248F0DD6
:10281000911D8F0D911D982F990F980F7E01E21A2F
:10282000F30AE09ED001E19EB00DF09EB00D1124A0
:102830008B2F499FA0011124452F55277E01E41AB3
:10284000F50AE09EA001E19E500DF09E500D11246E
:102850006E01C91AD108C29E7001C39EF00CD29EAF
:10286000F00C11242F2D3327C21BD30BC09F9001D6
:10287000C19F300DD09F300D1124932F6230710510
:1028800091F048F461157105E1F061307105B9F41A
:102890009E2FE52F16C06430710569F040F0663058
:1028A000710579F00CC09E2FEB2F832F0AC0EB2F00
:1028B0008F2F952F06C09B2F8E2FE32F02C09B2FAB
:1028C000852F7E2F692FDF91CF911F910F91FF9060
:1028D000EF90DF90CF900895DF92EF92FF920F93E9
:1028E0001F93CF93DF93EC01FC01E85EFD4F9081D5
:1028F000692381F1D090A9040091AA041091A80441
:10290000E12EF12C0E941435282FC7018C549F4FC3
:1029100068E671E00E940E368E199F0997FD0396B6
:1029200095958795959587952370612F289F600DC4
:1029300011247D2D802F0E94DC13462F282F672F16
:10294000CE01DF91CF911F910F91FF90EF90DF901B
:102950000C944212DF91CF911F910F91FF90EF9055
:10296000DF9008950E94EB2A2091E702211104C014
:102970002091E802222321F09093E4028093E30265
:102980002091E902211104C02091EA02222321F0C2
:102990009093E1028093E002E091D902F091DA0293
:1029A000309749F082E08093E5020480F581E02DC4
:1029B00085EE92E009940895803F39F48091E80211
:1029C00087FF6AC01092E80267C0813F29F48091B6
:1029D000E8021816BCF360C09091E702823F29F428
:1029E00097FF5AC01092E70257C0833F19F4191697
:1029F000CCF352C09091E902893F31F419160CF0E2
:102A00004BC01092E90248C08A3F19F497FF44C0B6
:102A1000F8CF8B3F39F48091EA0287FF3DC01092D6
:102A2000EA023AC08C3F29F48091EA021816BCF3FE
:102A300033C0843F21F48091E6028E7F17C0853F2A
:102A400021F48091E6028D7F11C0863F21F48091B0
:102A5000E6028B7F0BC0873F21F48091E602877FDF
:102A600005C0883F31F48091E6028F7E8093E602B4
:102A700013C08D3F21F4809163048E7F0BC08E3F85
:102A800021F4809163048D7F05C08F3F29F48091EC
:102A900063048B7F809363048091E702811106C0F9
:102AA0008091E802811102C01092E2028091E90255
:102AB000811106C08091EA02811102C01092DF02EA
:102AC00008958091630480FF08C060911E0170E04A
:102AD000759567957595679521C081FF06C06091D2
:102AE0001E0170E07595679519C082FF04C0609162
:102AF0001E0170E010C09091DF02992399F060915F
:102B00001D019617A0F780911E01899FC001112415
:102B100070E00E940E366038710540F46115710551
:102B200019F406C061E070E0862F08958FE70895DC
:102B300081E0089580916304209154023091550200
:102B400080FF0CC080912001829FB001839F700D97
:102B5000112476956795769567952FC081FF0AC0F9
:102B600080912001829FB001839F700D1124769582
:102B7000679523C082FF08C080912001829FB00129
:102B8000839F700D112419C04091E202411102C0CF
:102B9000B90113C060911F01461770F780912001A1
:102BA000849FA0011124429FC001439F900D529F1A
:102BB000900D112470E00E94FA356038710528F4F8
:102BC0006115710521F0862F08958FE7089581E042
:102BD0000895803F21F40E949A15819504C0813F99
:102BE00029F40E949A158093E8020895823F21F407
:102BF0000E949A15819504C0833F29F40E949A157A
:102C00008093E7020895893F19F40E94611505C079
:102C10008A3F31F40E94611581958093E9020895FD
:102C20008B3F21F40E946115819504C08C3F29F4EB
:102C30000E9461158093EA020895843F21F48091F7
:102C4000E602816017C0853F21F48091E602826030
:102C500011C0863F21F48091E60284600BC0873F5B
:102C600021F48091E602886005C0883F31F48091AC
:102C7000E60280618093E60208958D3F21F4809101
:102C8000630481600BC08E3F21F4809163048260F5
:102C900005C08F3F29F480916304846080936304AE
:102CA0000895F894E82FE295EF70F0E031A1282F15
:102CB0002F7081E090E001C0880F2A95EAF7982FE5
:102CC0009095932391A392A1892B82A37894089540
:102CD0008F929F92AF92BF92CF92DF92EF92FF922C
:102CE0000F931F93CF93DF938EE2E82E81E0F82EAF
:102CF000C0E7D2E098E7A92E92E0B92E10E0CC24EC
:102D0000C394D12CB701D7018C91F894E82FE295A8
:102D1000EF70F0E021A18F70A60102C0440F551F93
:102D20008A95E2F7CA01922F982B91A392A18095E0
:102D3000892382A3789400C0E2E3F1E020E030E050
:102D4000812C912C4191842F82958F7090E0DC0131
:102D500090968C9190E04F7002C0959587954A951A
:102D6000E2F780FD08C0C601022E02C0880F991F3D
:102D70000A94E2F702C080E090E0882A992A2F5F47
:102D80003F4F2C303105F1F6BFEFEB1AFB0AFB0188
:102D900080810E945116F0EAFA95F1F788819981B5
:102DA0008816990621F09982888281E001C080E02E
:102DB000182B2296AC16BD0609F0A4CF112349F0BA
:102DC00081E0809303030E94EB2A90930203809397
:102DD000010380910303882351F1809101039091B5
:102DE00002030E94D02A069710F180917002909100
:102DF00071029093F8028093F70280917202909191
:102E000073029093FA028093F90280917402909178
:102E100075029093FC028093FB0280917602909160
:102E200077029093FE028093FD021092030380913B
:102E300017018F3F41F1D12C06E11BC00E9DF0011F
:102E40000F9DF00D1124E555FC4FA288B388A11405
:102E5000B10421F4A0906402B09065020E9DE001DF
:102E60000F9DD00D1124C555DC4F8E81811110C0EE
:102E7000D394ED2CF12C80911701082E000C990BA6
:102E80008E159F05DCF68091670280FD18C033C067
:102E90008D859E850E94D02AA816B90648F7898993
:102EA000811103C0CE010E948D2E0E9DC0010F9D89
:102EB000900D11248F549C4F0E94AE2ED9CF80913B
:102EC000180182FF18C00E94EB2A20915D04309106
:102ED0005E04AC01421B530B209121013091220171
:102EE0004217530740F041E0BC0180915B04909190
:102EF0005C040E942C2E812FDF91CF911F910F91A6
:102F0000FF90EF90DF90CF90BF90AF909F908F9009
:102F10000895CF93DF930E94FC30EC018238910535
:102F200059F1A0F48133910509F473C040F489325A
:102F3000910509F467C08A9709F472C084C085338B
:102F4000910509F458C0C997B9F07DC0833E910539
:102F500071F138F4803E9105B1F0823E910511F196
:102F600072C0863E9105B9F1873E9105C9F1843E54
:102F7000910509F068C024C080916E0280FD5DC09B
:102F800081FD5BC060C080916E0280FD50C0809169
:102F90006F0280FF49C180916E0284FD43C1C3EE80
:102FA000D0E042C180916E0282FF3EC1F4CF809199
:102FB0006E0282FD3FC080916F0280FD3EC0EBCF6C
:102FC00080916F0281FF30C180916E0284FD2AC121
:102FD000C7EED0E029C180916E0283FF25C1F4CFF6
:102FE00080916E0283FD2CC080916F0281FFECCF37
:102FF000C4EED0E019C180916E0285FF15C1C9E20F
:10300000D0E012C180916E0285FF0EC1C5E3D0E011
:103010000BC180916E0286FF07C1CAE2D0E004C1F5
:1030200080916E0286FF00C1C1E3D0E0FDC0C9E31C
:10303000D0E0FAC0C2EED0E0F7C0C0EED0E0F4C0FD
:10304000C6EED0E0F1C0C11581E5D80708F066C032
:10305000C11520E5D207E0F0CE0174E09695879582
:103060007A95E1F783709C2F937021E030E002C0E5
:10307000220F331F9A95E2F73C68382BCF70C69524
:10308000C69540E2C49FE0011124C22BD32BCCC0D3
:10309000C83ED10560F5C03ED10508F0C5C0C83AAC
:1030A000D105B0F4C53AD10540F0C55AD0E0CA5BAD
:1030B000DE4FC881D0E0D064B7C0C130D10509F47B
:1030C000B3C008F4AFC0C430D10508F4ABC0ACC085
:1030D000CF3BD10508F0A6C0C85AD0E0CC0FDD1F09
:1030E000C75BDE4F0990D881C02DD4649DC0C11547
:1030F00040E2D40758F4C11581E0D80708F094C025
:10310000C03FD10508F48EC0D0658EC0C11520E443
:10311000D20708F487C0DF70D06A86C0C11545E5C4
:10312000D40708F042C0C11584E5D80728F0DC2F89
:10313000CC27C46FD06A78C0C11523E5D207B0F0A0
:10314000CE018370992721E030E002C0220F331FA7
:103150008A95E2F78C2F8695869540E2849FC00180
:103160001124E901C82BD92BDA685EC0C11542E5EC
:10317000D40728F4DC2FCC27C16FD06A55C0CE010C
:103180008370992721E030E002C0220F331F8A9517
:10319000E2F78C2F8695869540E2849FC00111242A
:1031A000E901C82BD92BDC683FC0C11589E5D807D8
:1031B000B8F4C11528E5D20728F0DC2FCC27C06F62
:1031C000D06A32C0C11546E5D40760F58C2F0E9445
:1031D000FF0F8F71C82FD0E0DC2FCC27D06224C026
:1031E000C1158AE5D80780F48C2F8F700E94FF0FDD
:1031F00094E0D695C7959A95E1F7CF70D0E0DC2F93
:10320000CC27D069C82B10C0CE01905681159042B2
:1032100048F48D2F8F710E94FF0FDD27D0628F71D0
:10322000D82B02C0C0E0D0E0CE01DF91CF9108954D
:10323000AF92BF92CF92DF92EF92FF920F931F93C4
:10324000CF93DF93EC018AE0A82E2881222309F492
:1032500097C0213009F041C08981813039F48E0155
:103260000E5F1F4F8A810E94262308C0823041F4DE
:103270008E010E5F1F4F8A810E94C722E8017EC027
:10328000833039F48E010E5F1F4F8A810E948F2296
:10329000F5CF843011F0219671C02A81229680E00A
:1032A00090E030E0205331092A30310558F4A89ECF
:1032B000A001A99E500D1124C901840F951F2196CC
:1032C0002881EFCF009709F459C0EFE9FFE031976B
:1032D000F1F700C000000197F5CFE22FF0E0E05BCE
:1032E000FC4FB490822F86958695869590E0FC01E0
:1032F000E05CFC4FE4902770F12C022E02C0F594A4
:10330000E7940A94E2F7F1E0EF22FF24FC01E05D8C
:10331000FC4FC490D12C022E02C0D594C7940A94BD
:10332000E2F731E0C322DD24FC01E05EFC4F0491B2
:1033300010E002C0159507952A95E2F70170112754
:10334000E114F10419F081EE0E94C722C114D104E6
:1033500019F086EE0E94C7228B2D0E942623CD28CD
:1033600019F086EE0E948F22EF2819F081EE0E945C
:103370008F22012B19F08CE20E942623219665CF23
:10338000DF91CF911F910F91FF90EF90DF90CF9041
:10339000BF90AF9008951F93CF93DF9300D000D0DC
:1033A0001F92CDB7DEB749835A8389819A816623FC
:1033B00059F0222349F00E944B2C182F682F898145
:1033C0009A810E94C82C03C00E94982C182F6981F2
:1033D0007A81812F0F900F900F900F900F90DF91B7
:1033E000CF911F910C94FC304F925F926F927F921D
:1033F0008F929F92AF92BF92CF92DF92EF92FF9205
:103400000F931F93CF93DF9300D000D0CDB7DEB7DB
:103410007C01DC0113964D915C91149711966C918F
:1034200011978C910E94A22D81110C94072221E00A
:10343000F701408151816281738184810E94CB199F
:103440008C01D70112968C91811105C0F701428140
:10345000411140C0C0C0809117018F3FB9F3EBEA22
:10346000CE2EE3E0DE2EA12CB12C992493948091F2
:103470001701082E000C990B8A159B053CF3D60109
:1034800016968C9116978823F1F019968D919C9140
:103490001A970817190739F48091A9039091AA0384
:1034A0000817190781F0F601978614870387818929
:1034B000811103C0C6010E948D2EC60106960E948E
:1034C000AE2E10921505FFEFAF1ABF0A26E1C20E0D
:1034D000D11CCDCFC80182519F45409708F093C0C1
:1034E0008FEF93E00E943D3581117FC07EEED72E95
:1034F000D00E09E712E0DD2071F0011544E0140759
:1035000009F473C0C8010E943D35811101C0DA94ED
:103510000F5F1F4FF0CF19821A821B821C82AA24D0
:10352000AA9468015FEFC51AD50AC8010E943D350B
:1035300089831A82882309F458C0813009F046C073
:10354000480182E0880E911CC6010E943D358A83A5
:10355000882309F44AC09FEF980F933060F4680104
:1035600093E0C90ED11CC4010E943D358B838111AB
:103570002DC08601D6CF843011F06401FACFC4018A
:103580000E943D35B82E6801A4E0CA0ED11CC801C6
:1035900003960E943D35BB2041F1882331F1282F4D
:1035A00030E021503109A29EA001A39E500D1124AC
:1035B0008B2D90E00197840F951F0197D0F2EFE9D2
:1035C000FFE03197F1F700C00000F7CFCE01019680
:1035D0000E941819CECF0031FFE51F0709F010C770
:1035E00081E00E94FF2C0E940F26809112058770B7
:1035F00009F40DC7F7018281882309F408C782E026
:103600000E94242D04C70031BFE51B0711F481E09F
:1036100005C00131EFE51E0721F482E00E94412D33
:10362000E2CFC80197558F3F910511F008F057C0C0
:1036300020911701022E000C330B2817390714F4C0
:103640008093170126E1289F5001299FB00C112477
:10365000C50185559C4F6C01DC0150964C935097E9
:10366000F701928116968C911697992369F11A9613
:103670001C930E9319978F5F16968C930E94EB2ADA
:10368000D6011E969C938E931D97809118051796D0
:103690008C9317979091150580911405892B189696
:1036A0008C931897ED91FC911197C5018F549C4F05
:1036B000309729F054966D917C9155970995109308
:1036C000AA030093A9030BC0882349F0F60181895E
:1036D000882329F0C5018F549C4F0E94AE2E809103
:1036E000670280FF65C00E94EB2A6C01D701129629
:1036F0008C91882379F18091180182FF06C040E007
:10370000B60180E090E00E942C2E82E00E94C12B46
:103710000B31BCE51B0779F00C31ECE51E0789F095
:103720000A31FCE51F07B1F480911801982F90959C
:1037300090FB80F909C08091180181608093180185
:103740007EC0809118018E7F8093180182E00E94D4
:10375000C12B75C00832110538F40E311105B0F4D3
:103760000430110578F424C00933110538F40D3202
:10377000110588F40B32110571F01AC004361105D9
:1037800051F016C08091670284FF09C080916702E2
:1037900083FD0EC004C08091670282FD09C0F7015D
:1037A0008281882309F4B5C18091180180FD75C11B
:1037B000033F2CE5120759F190F4083D5CE515072D
:1037C000E9F0093D8CE51807A1F1073D9CE51907D3
:1037D000B1F506E221EE41EE67ED7CE514C0053F50
:1037E000ACE51A0701F1C8F0063FECE51E0739F514
:1037F00007E225EE46EE66EF7CE505C007E225EE22
:1038000045EE68ED7CE5C7010E94F52EEECE06E29E
:1038100021EE40EE63EF7CE5F6CF07E225EE44EEC5
:1038200064EF7CE5F0CF06E221EE42EE65EF7CE549
:10383000EACF08E221E045EE69ED7CE5E4CFD7016F
:1038400012962C91222309F46AC110925F0402306F
:10385000BCE51B0708F463C10631ECE51E0730F038
:10386000C8018A5F9C45099708F059C10E943A2B0C
:1038700090936F0280936E020031FCE51F0709F4FC
:10388000C3C008F041C008304CE5140709F49AC0E1
:10389000F0F404308CE5180709F487C068F40230AE
:1038A000ACE51A0709F477C003301C4509F0E5C000
:1038B00080916E02826076C00630ECE51E0709F446
:1038C0006EC008F07BC080916E0288606BC00C30C7
:1038D0002CE5120709F485C068F40A305CE5150789
:1038E00009F474C008F079C00E94842280916E02AD
:1038F000806858C00E309CE5190709F476C008F0BE
:103900007FC080916E028BC00B3FBCE51B0709F4A2
:103910004FC018F50331FCE51F0709F47DC078F4AA
:1039200001314CE5140709F473C002311C4509F05C
:10393000A4C00E94842280916E028F7733C005312B
:103940008CE5180709F472C008F486C00A3F1C45CC
:1039500009F093C080916F023EC00F3FBCE51B078A
:1039600009F45FC058F40D3FFCE51F0709F444C09B
:1039700008F43FC080916F0282602DC001304DE598
:10398000140709F475C008F45DC002301D4509F044
:1039900074C060E06EC080916E02816003C080914F
:1039A0006E02806180936E0268C080916E0211C0C9
:1039B00080916F02826080936F025FC080916E027F
:1039C0008062F0CF80916E028064ECCF80916E02B5
:1039D00088608460E7CF8160EECF80916E028E7F39
:1039E000E1CF80916E028D7FDDCF80916E02877F67
:1039F000D9CF80916F0218C080916F028D7FDBCF8D
:103A000080916E028F7ECECF80916E028F7DCACF65
:103A100080916E028F7BC6CF80916E02877F8B7FF5
:103A2000C1CF80916F028D7F8E7FC5CF80916E0256
:103A300082FB222720F991E0922790FB82F990FBEC
:103A400083F9B0CF80916F02982F909591708E7FFF
:103A5000892B90FB81F9AFCF0E94842280916E0266
:103A600087FB222720F991E0922790FB87F99ACFD4
:103A700061E08EE090E00E945B3560916E021091F3
:103A80006F0284E090E00E945B35612F82E290E05B
:103A90000E945B350E948422A8CD9091670291FD1F
:103AA00004C020911405211183CE95FF21C02091DF
:103AB0005D0430915E042601421A530A920196FD7C
:103AC00002C081FD15C0283C310590F420915B04B3
:103AD00030915C040217130759F481FF05C08091EF
:103AE0001505826080931505802F0E94C7227DCD29
:103AF00010935C0400935B04D0925E04C0925D045A
:103B00008091180184608093180182E00E94242D26
:103B10006CCD40E0B601C8010E942C2E66CD063166
:103B2000FCE51F0709F047C080911405982F9A7A89
:103B30003091660230FF04C0482F447409F090E0D1
:103B400031FF04C0482F417109F090E032FF04C0FA
:103B5000482F487809F090E033FF02C0827261F488
:103B60002223A1F081E0911101C080E080936004E4
:103B7000992331F065E305C0222341F010926004DF
:103B800069E281EB94E00E94202B12C080916004D6
:103B9000882311F085E301C089E2E1EBF4E0928132
:103BA000891301C01282319694E0E73BF907B9F717
:103BB0000E940A2C1ACD222309F4BEC0809114055C
:103BC00082720A3CACE51A0709F474C098F5053C0A
:103BD000ECE51E0709F45AC0B8F4033C2CE51207C3
:103BE00009F44AC008F04DC0023C5CE5150709F035
:103BF00072C09091A70481E089278093A704109256
:103C00000A010E944412F1CC073C9CE5190709F413
:103C100047C008F440C0083CBCE51B0709F445C098
:103C2000093CECE51E0709F056C04EE652E16BE791
:103C300072E149C00E3CFCE51F0709F4D6CC58F4EC
:103C40000C3C4CE51407D9F108F040C04CE452E1BB
:103C500066E572E138C0063D8CE5180738F4003D92
:103C60001C4508F0C2CC61E083E032C00D35ADE503
:103C70001A0709F4BACC2FC04DEC52E167ED72E19E
:103C800022C047ED52E16DEC72E11DC042EA52E103
:103C90006CEA72E118C04CEA52E162EA72E113C0C8
:103CA00048E852E165E972E10EC045E952E168E891
:103CB00072E109C04BE752E16EE672E104C046E5ED
:103CC00052E16CE472E10E943A128FCC61E081E033
:103CD0000E94B6128ACC0A35BDE51B0741F150F4AB
:103CE0000115FCE51F07A9F00E3D1C4529F50E94B2
:103CF0004B2B7BCC0B354DE51407D9F00C351D450E
:103D0000D9F480916F0282FB882780F991E089279E
:103D100011C00E9484228FEF94E3ACE08150904068
:103D2000A040E1F700C000000E94862A5ECC81E03E
:103D300001C080E00E94CF2BD70112968C91129780
:103D40000D911C91882349F0C8010E944B2CD82E5C
:103D5000682FC8010E94C82C04C0C8010E94982C7A
:103D6000D82EB8018D2D0E9489178C01882ED7017D
:103D70001296BC9012971596CC90C2946FE0C62212
:103D800080911205877099F0BB2089F0812F807F88
:103D9000803421F080E2800F883048F082E00E9479
:103DA000242D809112058770AA24A3948111A12C3F
:103DB000912E92945FE09522892D90E08C309105B0
:103DC00008F0C1C2FC01E059FF4F0C942236912F3C
:103DD0009F70812F807FD92E19F0D29440EFD4228A
:103DE000BB20B9F0DD2009F48CC280E2800F88305E
:103DF00010F0811006C080911405D82AD0921405C5
:103E000005C080911505D82AD09215050E940A2C6C
:103E100078C2802F0E948F22DD2009F494C280E2B4
:103E2000800F883010F0811004C08D2D0E94C82BA7
:103E300003C08D2D0E94C12B0E940A2C84C2912F99
:103E40009F70812F807FD92E803219F0D29430EF6D
:103E5000D322882029F0B1E08B1609F44DC05AC056
:103E6000BB2071F1CC2031F1E1E0CE1213C0809182
:103E70006F0282FD68C280911805D82AD81609F40D
:103E800062C20E94EB2A9093170580931605D09288
:103E9000180559C280916802823060F0C8120AC0C9
:103EA0000E94B62B80910F05D81609F451C0D0920C
:103EB0000F054EC0809118058D290E94262243C20D
:103EC000CC2079F080916802F1E0CF1210C08230EE
:103ED00008F439C2809114058D2109F434C20E947E
:103EE000452C0E94B62B8D2D0E9437222CC2823089
:103EF000C0F3C812F6CF27C2BB2031F023E0422E18
:103F00004C1408F420C224C092E0592E5C1408F42A
:103F10001AC2E9CFBB20F1F0CC20D1F020E0D701CC
:103F20004C9111965C91119712966C911297139681
:103F30007C91139714968C910E94CB198091690201
:103F400081FDDFC1F701858180FFDBC18F70858333
:103F50008D2DB3CFCC2039F2F9E38F12E4C1DEC14D
:103F6000812F86958695837019F0813059F0EBC1C9
:103F7000BB2019F0C801937002C080E090E00E945D
:103F80000A2EE1C1BB2019F0C801937002C080E085
:103F900090E00E94F42DD7C1802FBB2029F00E9411
:103FA000E9150E94B21402C00E94DC140E94B214EF
:103FB000CAC1812F837009F06AC0B110C4C1902FAB
:103FC000929596959770990F990F802F8F70482E24
:103FD000512C612C712C092E04C0440C551C661CFC
:103FE000771C0A94D2F704FF12C04FE050E060E063
:103FF00070E004C0440F551F661F771F9A95D2F7D3
:10400000DB01CA0180959095A095B09503C080E032
:1040100090E0DC01612F6695669563706230D9F09F
:1040200068F52091190530911A0540911B055091B2
:104030001C05613059F084299529A629B729BC01AE
:10404000CD0162237323842395231EC0422A532A61
:10405000642A752A13C084299529A629B729409076
:10406000190550901A0560901B0570901C05BC0145
:10407000CD01642575258625972506C0BC01CD0197
:1040800064297529862997290E94782D5CC1BB2057
:1040900019F0812F817001C08695882309F453C1DE
:1040A000902F929596959770990F990F802F8F70FA
:1040B000482E512C612C712C092E04C0440C551C27
:1040C000661C771C0A94D2F704FF12C04FE050E040
:1040D00060E070E004C0440F551F661F771F9A957B
:1040E000D2F7DB01CA0180959095A095B09503C0E9
:1040F00080E090E0DC01612F669566956370623028
:10410000D9F068F52091AD043091AE044091AF0430
:104110005091B004613059F084299529A629B72916
:10412000BC01CD01622373238423952391C0422ACD
:10413000532A642A752A13C084299529A629B729E8
:104140004090AD045090AE046090AF047090B00405
:10415000BC01CD01642575258625972579C0BC0154
:10416000CD01642975298629972972C0212F2F70C6
:10417000D22EBB2029F0822F0E94412D802F9DCE70
:10418000802F0E9437228D2DDAC0802F42EF8416B7
:1041900009F443C0481538F050EF851661F091EFEF
:1041A0008916A9F1AAC0A3EF8A16E9F1B4EF8B161C
:1041B00009F451C0A2C0BB2029F0E2E0EC1508F4DC
:1041C000C2C005C083E0582E5C1408F4BCC0212F87
:1041D0002F7181E090E0A0E0B0E0AC01BD0104C02F
:1041E000440F551F661F771F2A95D2F78091AD04A3
:1041F0009091AE04A091AF04B091B0042A013B01AC
:10420000482659266A267B26C301B20121C0812F88
:104210008F71BB2009F493C07AC0812F8F71BB20AE
:1042200009F475C08CC0BB2081F0212F2F7181E073
:1042300090E0A0E0B0E0BC01CD0104C0660F771FA4
:10424000881F991F2A95D2F703C060E070E0CB0168
:104250000E94F52C78C0909168029230B8F1BB2092
:10426000F1F080910F050E94C82B80911205877094
:10427000843039F40E94E92B812F8F710E94FF2C2A
:1042800061C080916802C81608F05CC0212F2F71B0
:10429000D22E822F0E94412D63E08D2D10C02091DF
:1042A000140580910F05822B80931405C91650F0D8
:1042B0000E94E92B0E94452C64E0812F8F710E949F
:1042C000622D40C081E00E94242D3CC0BB2059F0EB
:1042D000412F4F71D42E842F0E94412D63E08D2DEC
:1042E0000E94622D30C081E00E94242D51E05C15B7
:1042F00050F582E00E94242D26C0BB2059F0CC202E
:1043000021F0802F0E94C7221EC0812F8F710E9432
:10431000412D19C0CC2089F0893329F480916C0299
:1043200090916D0204C080916A0290916B020E948C
:10433000E92D802F0E948F2206C0812F8F710E944D
:10434000FF2C01C0A12C88EF890D843010F40E944D
:10435000202EC8010E943E22811105C010926204E5
:104360001092610425C0BB2019F0C110F7CF20C006
:10437000C110F4CF20E0D7014C9111965C911197B8
:1043800012966C91129713967C91139714968C91B8
:104390000E94CB198091690283FFE0CF8091610474
:1043A000909162040297D1F6802F0E942623D6CFE7
:1043B000AA20A9F08091120580FD11C0F701128298
:1043C0008595859585950E94412DC7010E94F41918
:1043D000809112058595859585950E94FF2C20E09A
:1043E000D7014C9111965C91119712966C9112978E
:1043F00013967C91139714968C910E94CB1907C049
:1044000001312FE5120709F00CC982E0EAC80F90CC
:104410000F900F900F90DF91CF911F910F91FF9010
:10442000EF90DF90CF90BF90AF909F908F907F9054
:104430006F905F904F900895882339F09091150503
:10444000892B809315050C940A2C0895882339F044
:1044500090911405892B809314050C940A2C0895CF
:10446000882321F00E94C12B0C940A2C08958823E4
:1044700021F00E94C82B0C940A2C0895E92FE29594
:10448000EF704E2F50E0FA013297EE30F105B0F4A4
:10449000E458FF4F0C942236803F91F018F4883E88
:1044A00068F40EC0843F51F40BC0883E48F0813F51
:1044B00029F406C093FB882780F9089580E00895C9
:1044C00081E008950E948D2C0E943E22089580E094
:1044D00090E00E940A2E80E090E00E94F42D10925D
:1044E0001505109213050E940A2CE5EEF2E086E015
:1044F000DF011D928A95E9F71092E2021092DF0225
:10450000109263040C94B2141092140586E0E3EB4D
:10451000F4E0DF011D928A95E9F70C946722882365
:10452000A9F19CEF980F913A60F4E1EBF4E09281ED
:10453000891301C01282319694E0E73BF907B9F77D
:104540000DC090E2980F983058F4877091E001C048
:10455000990F8A95EAF7892F0E94C82B0C940A2C90
:104560009BE5980F933020F480E090E00C940A2EA5
:1045700098E5980F973120F480E090E00C94F42DAA
:10458000803F20F00E94DC140C94B2140895CF9365
:10459000882309F459C0C82F8CEF8C0F813AF8F4A6
:1045A000E3EBF4E089EB94E02191C21721F08E1740
:1045B0009F07D1F70EC0E1EBF4E087EB94E0228196
:1045C000C21301C0128231968E179F07C1F70E9455
:1045D0000A2C6C2F81EB94E00E94202B10C080E20B
:1045E0008C0F883078F4C77081E090E001C0880FAC
:1045F000CA95EAF790911405892B80931405CF9101
:104600000C940A2CEBE5EC0FE33040F4F0E0EA5BAD
:10461000FE4F808190E0CF910C940A2EE8E5EC0FDC
:10462000E73150F4F0E0EE0FFF1FE75BFE4F8081B3
:104630009181CF910C94F42DC03F30F08C2F0E94CB
:10464000E915CF910C94B214CF9108951F93CF9395
:10465000DF93182F893329F4C0916C02D0916D0239
:1046600004C0C0916A02D0916B02812F0E94C722C0
:10467000209741F08FE99FE00197F1F700C000001B
:104680002197F6CF812FDF91CF911F910C948F222C
:10469000BF92CF92DF92EF92FF920F931F93CF932F
:1046A000DF938091BE0482958F7009F062C0809183
:1046B000BB04882309F45DC0C091F00486E0B82EE5
:1046C0008091BF04C81709F454C0F090B904E09079
:1046D000BA04C090BC04D090BD04A6016E2D8F2DED
:1046E0000E94A22DD0E0811141C0BC9E8001BD9EE0
:1046F000100D1124F801E054FB4F51815E1136C0BA
:1047000040814F1133C08281811130C0E380F48039
:10471000EC18FD0820E06091BB047091BC0480910E
:10472000BD040E94CB198091640290916502E81645
:10473000F906E0F48091BE048F7080618093BE041E
:10474000F801EB53FB4F80818F708061808389EB90
:1047500094E00E94F419DF91CF911F910F91FF9087
:10476000EF90DF90CF90BF900C94B12D2196C77041
:10477000A7CFDF91CF911F910F91FF90EF90DF9026
:10478000CF90BF9008954F925F926F927F928F92D9
:104790009F92AF92BF92CF92DF92EF92FF920F93D0
:1047A0001F93CF93DF93CDB7DEB761970FB6F89421
:1047B000DEBF0FBECDBF8C0185E0F801DE011D9686
:1047C00001900D928A95E1F7D801EC901196FC903A
:1047D000119712966C9089EBA82E84E0B82E8090E9
:1047E000BC049090BD04A4016091BA048091B90406
:1047F0000E94A22D782E8111DBC1F801C380D480E4
:104800004090BB04C601881999094C0120E04091F1
:10481000B9045091BA04442009F457C1642D709131
:10482000BC048091BD040E94CB19809164029091D8
:1048300065025090BE048816990608F013C1409195
:10484000BC045091BD04B090B904A090BA04852D69
:10485000807F6A2D09F0A5C08B2D0E94A22D8111A9
:1048600015C0AF1013C0BE1011C061100FC0852D50
:104870008F7080618093BE0489EB94E00E94F419EC
:104880008091BE04D80115968C93B1C120E040916F
:10489000B9045091BA046091BB047091BC0480913A
:1048A000BD040E94CB198091640290916502843FFF
:1048B000914050F0A6016F2D8E2D0E94A22D8111E6
:1048C00015C081E0862514C020E04091B9045091C4
:1048D000BA046091BB047091BC048091BD040E9435
:1048E000CB198091690280FDE5CF17C080E090E090
:1048F00080FF13C0462D6F2D8E2D0E94822D8823A0
:1049000061F089EB94E00E94F419E9EBF4E086E0B1
:10491000DF011D928A95E9F76AC1A6016F2D8E2DE0
:104920000E94A22D811103C081E0862502C080E093
:1049300090E0B82FB170CB2E80FF2AC0462D6F2D8E
:104940008E2D0E94822DD82E811122C0ED86FE86EA
:104950008D859E850E948D2C292F22952F702230C7
:1049600018F0243078F405C09F7049F0811107C019
:104970000DC09F7021F0F8019581907F39F0805E25
:10498000883020F0C8010E94F419DC2C7D2C2FC146
:10499000662009F42BC18091BE0481608093BE041F
:1049A00026C18B2D0E94A22D811115C0AF1013C0FE
:1049B000BE1011C061100FC0D80115965C92C801DD
:1049C0000E94F41986E0F801A9EBB4E001900D9281
:1049D0008A95E1F760C0ED86FE868D859E850E94F2
:1049E00062228823C9F16620B9F12091BE04822F8A
:1049F00082958F7090E0029774F08091B904909145
:104A0000BA0498878F831986DB86CA862C87CE01E5
:104A100007960E94F41986E0F801A9EBB4E0019032
:104A20000D928A95E1F70E94482319C09090B9042D
:104A30008090BA044091BC045091BD04682D892D2A
:104A40000E94A22D8823B1F0ED86FE868D859E857D
:104A50000E946222811121C0C8010E94F4197724AA
:104A60007394C5C0852D807F09F789EB94E00E947F
:104A7000F41998C08F10E8CF9E10E6CF6110E4CFF4
:104A8000D80115965C92C8010E94F41986E0F501E0
:104A900011928A95E9F7742CAAC06620E9F2209158
:104AA000BE04822F82958F7090E002970CF4B3CFF2
:104AB0008091B9049091BA049A8389831B82DD8224
:104AC000CC822E83CE010196A4CF60E07091BC040D
:104AD0008091BD040E94CB1980916402909165027F
:104AE0008816990608F05EC0762C662009F4B4CFCB
:104AF000C090B904D090BA044091BC045091BD0458
:104B00006D2D8C2D0E94A22D81113BC0DF1039C06C
:104B1000CE1037C020E0A6016091BB047091BC04A8
:104B20008091BD040E94CB198091690282FD20C052
:104B30008091BE0480FD1CC082958F70482F50E08C
:104B400041155105A9F02091BE04D80115962C936A
:104B500015974F30510549F08F5F982F9295907FB0
:104B6000822F8F70892B15968C93C8010E94F4199F
:104B700086E0F801A9EBB4E001900D928A95E1F787
:104B800036C0ED86FE868D859E850E94622281114B
:104B900042CF8091BE0481608093BE04C8010E9410
:104BA000F41925C086E0F50111928A95E9F71FC036
:104BB000662009F451CFED86FE868D859E850E9484
:104BC0006222782E882309F447CF86E0F801A9EB0A
:104BD000B4E001900D928A95E1F78091B90490912B
:104BE000BA040E948D2C0E94482301C0712C872D8D
:104BF00061960FB6F894DEBF0FBECDBFDF91CF91A7
:104C00001F910F91FF90EF90DF90CF90BF90AF90EA
:104C10009F908F907F906F905F904F9008950F932B
:104C20001F938091AD049091AE04A091AF04B09118
:104C3000B0048C019D010670112722273327BC0187
:104C4000CD01063011052105310511F4686001C060
:104C5000677F1F910F910C94F52CDF92EF92FF92DA
:104C60000F931F93CF93DF938C01C0911A01CC0F48
:104C70008C2F880F880FC80FDAE0DC0FD23308F0D2
:104C8000D1E36091AB046695669521E0620F08F46C
:104C90006FEF8091A3049091A4040E94D213D82EA8
:104CA000CD17F0F4EC2EF12CF701E85EFD4F90816A
:104CB00080911B01892391F06091A8047091A9044F
:104CC0008091AA042D2D4C2FF80109950E94DC1328
:104CD000462F282F672FC7010E944212CF5FE0CFD7
:104CE00081E0D13308F080E0DF91CF911F910F91E7
:104CF000FF90EF90DF900895CF92DF92EF92FF92B6
:104D00000F931F93CF93DF938C01C0911A01CC0FA7
:104D10008C2F880F880FC80FDAE0DC0FD23308F031
:104D2000D1E32091AB0431E0230F08F42FEF30E002
:104D300040E050E06FEF7FEF80E090E00E94973519
:104D40007901CD1708F041C0CC2ED12CF601E85ED8
:104D5000FD4F908180911B018923A9F190917A04E4
:104D6000915097FD15C0492F092E000C550BFA01E3
:104D7000E658FB4F8189C813F3CF440F551FFA0142
:104D8000E658FB4F218D328D2E153F0548F701C0A7
:104D900097016091AB0441E0640F08F46FEFC90123
:104DA0000E94D213AC016091A8047091A904809173
:104DB000AA04F80109950E94DC13462F282F672FBB
:104DC000C6010E944212CF5FBCCF81E0D13308F010
:104DD00080E0DF91CF911F910F91FF90EF90DF90D6
:104DE000CF900895EF92FF920F931F93CF93DF938D
:104DF0007C018B010E94AD32811119C0E7010115C0
:104E00001105A1F08091E80085FD0AC08091E800BD
:104E10008E778093E8000E94AD32882381F307C02B
:104E200089918093F10001501109E9CF80E0DF9171
:104E3000CF911F910F91FF90EF9008951F93CF9303
:104E4000DF93CDB7DEB7AA970FB6F894DEBF0FBEDB
:104E5000CDBFE2E7F4E08091F100819344E0EA37CE
:104E6000F407C9F780917304833009F462C030F409
:104E7000813071F0823009F49CC0B3C08A3009F4EB
:104E800088C08B3009F46DC0893009F0AAC020C0F9
:104E900080917204813A09F0A4C08091E800877F74
:104EA0008093E8008091760490917704892B21F417
:104EB00068E086E694E003C060E080E090E070E0A7
:104EC0000E946A348091E8008B778093E80089C063
:104ED00080917204813209F084C0809176049091AF
:104EE0007704009719F0029709F07BC08091E800E1
:104EF000877F8093E8008091E80082FD05C0809163
:104F000070048111F8CF6DC02091F3008091F20000
:104F100090E0922B029729F48091F1008B7F8130F1
:104F200021F48091F100809365048091E8008B77F3
:104F300054C080917204813A09F053C08091760484
:104F400090917704892B09F04CC08091E800877F0D
:104F50008093E8008091E80080FFFCCF80911901E8
:104F600037C0809172048132E1F58091760490918E
:104F70007704892BB1F58091E800877F8093E80062
:104F80000E94E03280917404809319010E9484226F
:104F900028C080917204813221F58091E800877FDA
:104FA0008093E8000E94E03280917504809364044D
:104FB00018C080917204813AA1F48091E800877F43
:104FC0008093E8008091E80080FFFCCF809164042A
:104FD0008093F1008091E8008E778093E8000E9432
:104FE000E0328091E80083FFE9C1809172049091E2
:104FF0007304492F50E04A30510508F0DFC1FA012F
:10500000E657FF4F0C942236803821F0823809F0A1
:10501000D5C108C080916E0490916F04992389F0E6
:1050200082600FC0809176048F70873008F0C6C10F
:105030008093E9008091EB0085FB882780F910922E
:10504000E9009091E800977F9093E8008093F10049
:105050001092F1007CC1282F2D7F09F0AFC1882369
:1050600019F0823061F0AAC180917404813009F096
:10507000A5C1933009F080E080936F042EC0809129
:10508000740481112AC0809176048F702FEF280F4D
:10509000263008F093C18093E9002091EB0020FFB7
:1050A0001CC0933021F48091EB00806214C0909179
:1050B000EB0090619093EB0021E030E0A90102C089
:1050C000440F551F8A95E2F74093EA001092EA00D8
:1050D0008091EB0088608093EB001092E900809152
:1050E000E800877F8093E8000E94E03267C1811169
:1050F00065C1109174041F778091E3008078812B43
:105100008093E3008091E800877F8093E8000E940D
:10511000E0328091E80080FFFCCF8091E30080685E
:105120008093E300111102C082E001C083E080930C
:10513000700444C18058823008F040C1209174044A
:10514000309175042C3D53E0350779F583E08A836F
:105150008AE289834FB7F894DE01139620E03EE09F
:1051600051E2E32FF0E050935700E49120FF03C099
:10517000E295EF703F5FEF708E2F90E0EA3010F015
:10518000C79601C0C0968D939D932F5F243149F738
:105190004FBF8091E800877F8093E8006AE270E06B
:1051A000CE0101960E946A34C0C08091760490912D
:1051B0007704432F552743305105B1F068F441304F
:1051C000510509F40AC14230510509F0F7C08BE5D9
:1051D00090E0E3EBF5E057C04132510589F14232EE
:1051E000510509F43CC0EAC0C901992781309105F5
:1051F000B9F070F082309105D9F0039709F0DEC064
:10520000E0E2F6E0E4918E2F90E0E0E2F6E038C0D4
:10521000E0E6F6E0E4918E2F90E0E0E6F6E030C0C4
:10522000ECE5F6E0E4918E2F90E0ECE5F6E028C0A6
:10523000EEE3F6E0E4918E2F90E0EEE3F6E020C09E
:105240008330910508F0BAC0880F991FFC01E0581F
:10525000FE4F0190F081E02D89E090E014C0833092
:10526000910508F0ABC0FC01EE0FFF1FE658FE4FA2
:105270000190F081E02DDC01A958BE4F8C9190E0A7
:10528000009709F49BC02091E800277F2093E80055
:1052900020917804309179042817390708F4C9015E
:1052A00040E0009789F120917004222309F43DC069
:1052B0002530D9F12091E80023FD37C02091E80086
:1052C00022FD2FC02091E80020FFEBCF4091F3009A
:1052D0002091F20030E0342B009759F0283031054E
:1052E00040F444914093F100319601972F5F3F4F76
:1052F000F3CF41E02830310509F040E02091E8008B
:105300002E772093E800CDCF4111CDCF0AC08091F8
:105310007004882351F0853041F08091E80083FDCE
:1053200004C08091E80082FFF2CF8091E8008B7783
:105330008093E80043C0803809F040C08091E800C5
:10534000877F8093E800809171048093F1008091C1
:10535000E8008E77C7CE811131C08091740490919E
:1053600075049927029754F58091E800877F809310
:10537000E80010917404109371040E94E03211113E
:1053800006C08091E30087FD02C081E001C084E097
:105390008093700442E061EC81E00E94FF3242E2BF
:1053A00061EC84E00E94FF3242E261EC82E00E9404
:1053B000FF3242E260EC83E00E94FF328091E8001D
:1053C00083FF10C08091E800877F8093E800809180
:1053D000EB0080628093EB0005C082E190E0EEE09C
:1053E000F6E051CFAA960FB6F894DEBF0FBECDBF40
:1053F000DF91CF911F91089580916504089580E019
:105400000895CF93DF9300D01F92CDB7DEB7909170
:105410007004943011F589837B836A839093E9004B
:105420008FEF9091E800815095FD06C095ED9A951B
:10543000F1F700008111F5CF8091E80085FF0DC0E4
:1054400040E050E063E070E0CE0101960E94F22659
:105450008091E8008E778093E8000F900F900F9076
:10546000DF91CF910895BC0184E00C94012ABC0126
:1054700083E00C94012A24E02093E9002FEF30917F
:10548000E800215035FD06C035ED3A95F1F70000F2
:105490002111F5CF2091E80025FF0BC040E050E03E
:1054A00066E070E00E94F2268091E8008E7780939B
:1054B000E8000895CF93DF9321E02093E9002FEFD8
:1054C0003091E800215035FD06C035ED3A95F1F7F1
:1054D00000002111F5CF2091E80025FF14C0EC0158
:1054E00040E050E068E070E00E94F2268091E80021
:1054F0008E778093E80088E0FE01A6E6B4E0019094
:105500000D928A95E1F7DF91CF91089581E0809324
:10551000E00080E28093D8001092C9008FE19EE401
:105520000197F1F700C0000087E090EBDC01809369
:10553000260590932705A0932805B09329059CE0A4
:1055400088E10FB6F894A895809360000FBE909301
:105550006000FFCF78941F920F920FB60F92112424
:105560008F939F93AF93BF938091DB029091DC0266
:10557000A091DD02B091DE020196A11DB11D8093C4
:10558000DB029093DC02A093DD02B093DE02BF91B8
:10559000AF919F918F910F900FBE0F901F90189514
:1055A0009C014FB7F8948091DB029091DC02A091AE
:1055B000DD02B091DE024FBF821B930B08952FB71F
:1055C000F8946091DB027091DC028091DD02909191
:1055D000DE022FBF08952FB7F8948091DB029091DF
:1055E000DC02A091DD02B091DE022FBF08951F9270
:1055F0000F920FB60F9211248F939F93AF93BF9387
:1056000080917802811113C08091DB029091DC02BD
:10561000A091DD02B091DE024196A11DB11D8093E3
:10562000DB029093DC02A093DD02B093DE02BF9117
:10563000AF919F918F910F900FBE0F901F90189573
:105640009C01FC0132969FEF80E04191461789F062
:105650009F3F19F4411101C0982F8F5F8630A9F741
:105660009F3F39F0F901E90FF11D97FDFA9562832B
:1056700008950895CF9384E090E00E943D35C82FAF
:1056800082E290E00E943D352C2F30E0A901582B9A
:10569000CA01CF9108956AEE7EEF80E090E00E940B
:1056A000793560E082E090E00E945B3560E083E065
:1056B00090E00E945B351092190510921A05109225
:1056C0001B0510921C0560E084E090E00E945B35B1
:1056D00060E082E290E00E945B3560E085E090E06F
:1056E0000E945B3560E086E090E00E945B356FEFE2
:1056F00087E090E00E945B3540E050E0BA0188E02E
:1057000090E00E946D3560E08DE090E00E945B3596
:1057100040E050E0BA0188E190E00E946D3560E021
:1057200087E190E00E945B3540E050E0BA018CE1F7
:1057300090E00E946D3560E070E080E290E00E94B1
:10574000793540E050E0BA0188E190E00E946D3583
:1057500040E050E0BA018FE090E00E946D3540E0FB
:1057600050E0BA0183E190E00C946D35809118050A
:10577000882331F010921805109217051092160523
:1057800008958095909115058923809315050895B6
:105790008095909114058923809314050895CF93E3
:1057A000C0916F02C2FB992790F9981781F080FB96
:1057B000C2F9C0936F0260916E0284E090E00E9493
:1057C0005B356C2F82E290E0CF910C945B35CF91EA
:1057D0000895109212051092110510921005089567
:1057E00080914E0290914F02892B89F00E94EB2A02
:1057F0002091160530911705AC01421B530B81E037
:1058000020914E0230914F024217530708F480E076
:10581000817008959091140580911505892B9091C0
:105820001305892B8093B10480911805882301F119
:1058300080914E0290914F02892B29F00E94F02B0B
:1058400081110E94B62B9091B10480911805892B8B
:105850008093B104E3EBF4E097E080E0915029F00D
:1058600021912223D9F38F5FF9CF81110E94B62BAA
:10587000E091D902F091DA02309731F00280F381A1
:10588000E02D81EB94E00994089580910F0581113A
:1058900010920F050895BF92CF92DF92EF92FF9280
:1058A0000F931F93CF93DF938C01C090AD04D090E2
:1058B000AE04E090AF04F090B0048091190590918F
:1058C0001A05A0911B05B0911C05C82AD92AEA2AFD
:1058D000FB2ACFE1D0E0D701C6010C2E04C0B6955B
:1058E000A795979587950A94D2F780FD04C02197D4
:1058F00090F7B12C07C0BC2EB8018C2F0E948917DD
:105900000197A9F38B2DDF91CF911F910F91FF90FC
:10591000EF90DF90CF90BF900895CF93DF93EC018D
:105920000E944B2CBE010E948917DF91CF910895F0
:105930009E3F61F12CE0929F800D1124682F6695A7
:1059400066956695982F977085E0689FB001112441
:1059500040E050E080E0FB01E40FF51FEF50FB4F0B
:10596000208130E0092E02C0369527950A94E2F78F
:1059700021703327042E01C0220F0A94EAF7822BEC
:105980004F5F5F4F4530510531F7089580E008952E
:105990009E3F51F12CE0929F800D1124E82FE69557
:1059A000E695E695877051E001C0550F8A95EAF7B4
:1059B00085E0E89FF0011124EF50FB4F20E030E03C
:1059C00070E04081CB01022E02C0969587950A9423
:1059D000E2F78170819584278523842781932F5F47
:1059E0003F4F2530310569F708956093AD047093FA
:1059F000AE048093AF049093B0040C9467220F938D
:105A00001F9341E050E060E070E004C0440F551F78
:105A1000661F771F8A95D2F74095509560957095CF
:105A20008091AD049091AE04A091AF04B091B00408
:105A30008A019B01082319232A233B23C901B801AA
:105A40001F910F910C94F52C2091120580958223C3
:105A500080931205982F977041F430E0482F082E5C
:105A6000000C550B2417350721F490916F0292FF1B
:105A700007C08595859585950E94FF2C0C94E92B90
:105A800008950F931F9341E050E060E070E004C080
:105A9000440F551F661F771F8A95D2F78091AD047A
:105AA0009091AE04A091AF04B091B0048A019B0123
:105AB000082B192B2A2B3B2BC901B8011F910F91E1
:105AC0000C94F52C90916F0292FD10C098E0899F84
:105AD00090011124262B209312050E94412D0E9433
